{
  "_format": "hh-sol-artifact-1",
  "contractName": "ClaimApplication",
  "sourceName": "contracts/ClaimApplication.sol",
  "abi": [
    {
      "inputs": [
        {
          "internalType": "address",
          "name": "_contractregistryAddress",
          "type": "address"
        }
      ],
      "stateMutability": "nonpayable",
      "type": "constructor"
    },
    {
      "anonymous": false,
      "inputs": [
        {
          "indexed": false,
          "internalType": "address",
          "name": "_policyHolder",
          "type": "address"
        },
        {
          "indexed": false,
          "internalType": "uint256",
          "name": "_policyNumber",
          "type": "uint256"
        }
      ],
      "name": "ClaimApplicationApproved",
      "type": "event"
    },
    {
      "anonymous": false,
      "inputs": [
        {
          "indexed": false,
          "internalType": "address",
          "name": "_policyHolder",
          "type": "address"
        },
        {
          "indexed": false,
          "internalType": "uint256",
          "name": "_policyNumber",
          "type": "uint256"
        }
      ],
      "name": "ClaimApplicationRejected",
      "type": "event"
    },
    {
      "anonymous": false,
      "inputs": [
        {
          "indexed": false,
          "internalType": "address",
          "name": "_policyHolder",
          "type": "address"
        },
        {
          "indexed": false,
          "internalType": "uint256",
          "name": "_policyNumber",
          "type": "uint256"
        }
      ],
      "name": "ClaimApplicationSubmitted",
      "type": "event"
    },
    {
      "anonymous": false,
      "inputs": [
        {
          "indexed": false,
          "internalType": "address",
          "name": "_policyHolder",
          "type": "address"
        },
        {
          "indexed": false,
          "internalType": "uint256",
          "name": "_policyNumber",
          "type": "uint256"
        }
      ],
      "name": "ClaimApplicationVerified",
      "type": "event"
    },
    {
      "inputs": [
        {
          "internalType": "address",
          "name": "_policyHolder",
          "type": "address"
        }
      ],
      "name": "getClaim",
      "outputs": [
        {
          "components": [
            {
              "internalType": "address",
              "name": "policyHolder",
              "type": "address"
            },
            {
              "internalType": "uint256",
              "name": "amount",
              "type": "uint256"
            },
            {
              "internalType": "bool",
              "name": "verified",
              "type": "bool"
            },
            {
              "internalType": "bool",
              "name": "paid",
              "type": "bool"
            }
          ],
          "internalType": "struct ClaimApplication.Claim",
          "name": "",
          "type": "tuple"
        }
      ],
      "stateMutability": "view",
      "type": "function"
    },
    {
      "inputs": [],
      "name": "getClaims",
      "outputs": [
        {
          "components": [
            {
              "internalType": "address",
              "name": "policyHolder",
              "type": "address"
            },
            {
              "internalType": "uint256",
              "name": "amount",
              "type": "uint256"
            },
            {
              "internalType": "bool",
              "name": "verified",
              "type": "bool"
            },
            {
              "internalType": "bool",
              "name": "paid",
              "type": "bool"
            }
          ],
          "internalType": "struct ClaimApplication.Claim[]",
          "name": "",
          "type": "tuple[]"
        }
      ],
      "stateMutability": "view",
      "type": "function"
    },
    {
      "inputs": [
        {
          "internalType": "address",
          "name": "_policyHolder",
          "type": "address"
        }
      ],
      "name": "hasClaimApplication",
      "outputs": [
        {
          "internalType": "bool",
          "name": "",
          "type": "bool"
        }
      ],
      "stateMutability": "view",
      "type": "function"
    },
    {
      "inputs": [
        {
          "internalType": "address",
          "name": "_policyHolder",
          "type": "address"
        }
      ],
      "name": "payClaim",
      "outputs": [],
      "stateMutability": "nonpayable",
      "type": "function"
    },
    {
      "inputs": [
        {
          "internalType": "address",
          "name": "_policyHolder",
          "type": "address"
        }
      ],
      "name": "rejectClaim",
      "outputs": [],
      "stateMutability": "nonpayable",
      "type": "function"
    },
    {
      "inputs": [
        {
          "internalType": "uint256",
          "name": "_ClaimAmount",
          "type": "uint256"
        }
      ],
      "name": "submitClaim",
      "outputs": [],
      "stateMutability": "payable",
      "type": "function"
    },
    {
      "inputs": [
        {
          "internalType": "address",
          "name": "_policyHolder",
          "type": "address"
        }
      ],
      "name": "verifyClaim",
      "outputs": [],
      "stateMutability": "nonpayable",
      "type": "function"
    }
  ],
  "bytecode": "0x60806040523480156200001157600080fd5b5060405162002ca438038062002ca48339818101604052810190620000379190620000e8565b806000806101000a81548173ffffffffffffffffffffffffffffffffffffffff021916908373ffffffffffffffffffffffffffffffffffffffff160217905550506200011a565b600080fd5b600073ffffffffffffffffffffffffffffffffffffffff82169050919050565b6000620000b08262000083565b9050919050565b620000c281620000a3565b8114620000ce57600080fd5b50565b600081519050620000e281620000b7565b92915050565b6000602082840312156200010157620001006200007e565b5b60006200011184828501620000d1565b91505092915050565b612b7a806200012a6000396000f3fe6080604052600436106100705760003560e01c80636aa14a961161004e5780636aa14a96146101045780637fc9668a14610120578063a80d520c1461015d578063c52822f81461018657610070565b80631f30ed7a1461007557806336b9418a1461009e5780634cd3723a146100c7575b600080fd5b34801561008157600080fd5b5061009c60048036038101906100979190611dae565b6101b1565b005b3480156100aa57600080fd5b506100c560048036038101906100c09190611dae565b61058b565b005b3480156100d357600080fd5b506100ee60048036038101906100e99190611dae565b610af3565b6040516100fb9190611e73565b60405180910390f35b61011e60048036038101906101199190611eba565b610c99565b005b34801561012c57600080fd5b5061014760048036038101906101429190611dae565b6113f5565b6040516101549190611ef6565b60405180910390f35b34801561016957600080fd5b50610184600480360381019061017f9190611dae565b611441565b005b34801561019257600080fd5b5061019b6118a0565b6040516101a89190612015565b60405180910390f35b806000600260008373ffffffffffffffffffffffffffffffffffffffff1673ffffffffffffffffffffffffffffffffffffffff16815260200190815260200160002054905060008103610239576040517f08c379a0000000000000000000000000000000000000000000000000000000008152600401610230906120ba565b60405180910390fd5b60008060009054906101000a900473ffffffffffffffffffffffffffffffffffffffff1673ffffffffffffffffffffffffffffffffffffffff1663358177736040518060400160405280600681526020017f706f6c69637900000000000000000000000000000000000000000000000000008152506040518263ffffffff1660e01b81526004016102ca9190612159565b602060405180830381865afa1580156102e7573d6000803e3d6000fd5b505050506040513d601f19601f8201168201806040525081019061030b9190612190565b905060008173ffffffffffffffffffffffffffffffffffffffff1663dbc837c56040518163ffffffff1660e01b8152600401602060405180830381865afa15801561035a573d6000803e3d6000fd5b505050506040513d601f19601f8201168201806040525081019061037e91906121fb565b90508073ffffffffffffffffffffffffffffffffffffffff163373ffffffffffffffffffffffffffffffffffffffff16146103ee576040517f08c379a00000000000000000000000000000000000000000000000000000000081526004016103e59061229a565b60405180910390fd5b60008060009054906101000a900473ffffffffffffffffffffffffffffffffffffffff1673ffffffffffffffffffffffffffffffffffffffff1663358177736040518060400160405280600681526020017f706f6c69637900000000000000000000000000000000000000000000000000008152506040518263ffffffff1660e01b815260040161047f9190612159565b602060405180830381865afa15801561049c573d6000803e3d6000fd5b505050506040513d601f19601f820116820180604052508101906104c09190612190565b90506104cb86611995565b60008173ffffffffffffffffffffffffffffffffffffffff16635eb7d95a886040518263ffffffff1660e01b815260040161050691906122c9565b602060405180830381865afa158015610523573d6000803e3d6000fd5b505050506040513d601f19601f8201168201806040525081019061054791906122f9565b90507f34cf79016e20b1e5bd3a95ecca27b31ff74cec27128a1b648c838f5c39477a1d878260405161057a929190612335565b60405180910390a150505050505050565b60008060009054906101000a900473ffffffffffffffffffffffffffffffffffffffff1673ffffffffffffffffffffffffffffffffffffffff1663358177736040518060400160405280600681526020017f706f6c69637900000000000000000000000000000000000000000000000000008152506040518263ffffffff1660e01b815260040161061c9190612159565b602060405180830381865afa158015610639573d6000803e3d6000fd5b505050506040513d601f19601f8201168201806040525081019061065d9190612190565b905060008173ffffffffffffffffffffffffffffffffffffffff1663dbc837c56040518163ffffffff1660e01b8152600401602060405180830381865afa1580156106ac573d6000803e3d6000fd5b505050506040513d601f19601f820116820180604052508101906106d091906121fb565b90508073ffffffffffffffffffffffffffffffffffffffff163373ffffffffffffffffffffffffffffffffffffffff1614610740576040517f08c379a00000000000000000000000000000000000000000000000000000000081526004016107379061229a565b60405180910390fd5b60008060009054906101000a900473ffffffffffffffffffffffffffffffffffffffff1673ffffffffffffffffffffffffffffffffffffffff1663358177736040518060400160405280600681526020017f706f6c69637900000000000000000000000000000000000000000000000000008152506040518263ffffffff1660e01b81526004016107d19190612159565b602060405180830381865afa1580156107ee573d6000803e3d6000fd5b505050506040513d601f19601f820116820180604052508101906108129190612190565b905060008173ffffffffffffffffffffffffffffffffffffffff16635eb7d95a866040518263ffffffff1660e01b815260040161084f91906122c9565b602060405180830381865afa15801561086c573d6000803e3d6000fd5b505050506040513d601f19601f8201168201806040525081019061089091906122f9565b905060006001600260008873ffffffffffffffffffffffffffffffffffffffff1673ffffffffffffffffffffffffffffffffffffffff168152602001908152602001600020546108e0919061238d565b905060011515600182815481106108fa576108f96123c1565b5b906000526020600020906003020160020160009054906101000a900460ff1615151461095b576040517f08c379a00000000000000000000000000000000000000000000000000000000081526004016109529061243c565b60405180910390fd5b6000151560018281548110610973576109726123c1565b5b906000526020600020906003020160020160019054906101000a900460ff161515146109d4576040517f08c379a00000000000000000000000000000000000000000000000000000000081526004016109cb906124a8565b60405180910390fd5b60018082815481106109e9576109e86123c1565b5b906000526020600020906003020160020160016101000a81548160ff021916908315150217905550600060018281548110610a2757610a266123c1565b5b9060005260206000209060030201600101549050610a4487611995565b8373ffffffffffffffffffffffffffffffffffffffff166350802e3f88836040518363ffffffff1660e01b8152600401610a7f9291906124d7565b600060405180830381600087803b158015610a9957600080fd5b505af1158015610aad573d6000803e3d6000fd5b505050507f9399804fcdc49f981ddb364feccbc1cf0b8430761121f70e86695ff5abdb742f8784604051610ae2929190612335565b60405180910390a150505050505050565b610afb611cff565b816000600260008373ffffffffffffffffffffffffffffffffffffffff1673ffffffffffffffffffffffffffffffffffffffff16815260200190815260200160002054905060008103610b83576040517f08c379a0000000000000000000000000000000000000000000000000000000008152600401610b7a906120ba565b60405180910390fd5b600180600260008773ffffffffffffffffffffffffffffffffffffffff1673ffffffffffffffffffffffffffffffffffffffff16815260200190815260200160002054610bd0919061238d565b81548110610be157610be06123c1565b5b90600052602060002090600302016040518060800160405290816000820160009054906101000a900473ffffffffffffffffffffffffffffffffffffffff1673ffffffffffffffffffffffffffffffffffffffff1673ffffffffffffffffffffffffffffffffffffffff168152602001600182015481526020016002820160009054906101000a900460ff161515151581526020016002820160019054906101000a900460ff16151515158152505092505050919050565b60008060009054906101000a900473ffffffffffffffffffffffffffffffffffffffff1673ffffffffffffffffffffffffffffffffffffffff1663358177736040518060400160405280600681526020017f706f6c69637900000000000000000000000000000000000000000000000000008152506040518263ffffffff1660e01b8152600401610d2a9190612159565b602060405180830381865afa158015610d47573d6000803e3d6000fd5b505050506040513d601f19601f82011682018060405250810190610d6b9190612190565b905060008173ffffffffffffffffffffffffffffffffffffffff166345f23e29336040518263ffffffff1660e01b8152600401610da891906122c9565b61010060405180830381865afa158015610dc6573d6000803e3d6000fd5b505050506040513d601f19601f82011682018060405250810190610dea919061264a565b90508060a001513414610e32576040517f08c379a0000000000000000000000000000000000000000000000000000000008152600401610e29906126ea565b60405180910390fd5b60008311610e75576040517f08c379a0000000000000000000000000000000000000000000000000000000008152600401610e6c9061277c565b60405180910390fd5b8060800151831115610ebc576040517f08c379a0000000000000000000000000000000000000000000000000000000008152600401610eb39061280e565b60405180910390fd5b8173ffffffffffffffffffffffffffffffffffffffff1663b6bbad12336040518263ffffffff1660e01b8152600401610ef591906122c9565b602060405180830381865afa158015610f12573d6000803e3d6000fd5b505050506040513d601f19601f82011682018060405250810190610f36919061285a565b610f75576040517f08c379a0000000000000000000000000000000000000000000000000000000008152600401610f6c906128f9565b60405180910390fd5b8173ffffffffffffffffffffffffffffffffffffffff16637fcdf27a336040518263ffffffff1660e01b8152600401610fae91906122c9565b602060405180830381865afa158015610fcb573d6000803e3d6000fd5b505050506040513d601f19601f82011682018060405250810190610fef919061285a565b61102e576040517f08c379a000000000000000000000000000000000000000000000000000000000815260040161102590612965565b60405180910390fd5b8173ffffffffffffffffffffffffffffffffffffffff166319ae3c6a336040518263ffffffff1660e01b815260040161106791906122c9565b602060405180830381865afa158015611084573d6000803e3d6000fd5b505050506040513d601f19601f820116820180604052508101906110a8919061285a565b6110e7576040517f08c379a00000000000000000000000000000000000000000000000000000000081526004016110de906129f7565b60405180910390fd5b8173ffffffffffffffffffffffffffffffffffffffff16630f78984b336040518263ffffffff1660e01b815260040161112091906122c9565b602060405180830381865afa15801561113d573d6000803e3d6000fd5b505050506040513d601f19601f82011682018060405250810190611161919061285a565b6111a0576040517f08c379a000000000000000000000000000000000000000000000000000000000815260040161119790612a63565b60405180910390fd5b6000600260003373ffffffffffffffffffffffffffffffffffffffff1673ffffffffffffffffffffffffffffffffffffffff1681526020019081526020016000205414611222576040517f08c379a000000000000000000000000000000000000000000000000000000000815260040161121990612af5565b60405180910390fd5b600060405180608001604052803373ffffffffffffffffffffffffffffffffffffffff168152602001858152602001600015158152602001600015158152509050600181908060018154018082558091505060019003906000526020600020906003020160009091909190915060008201518160000160006101000a81548173ffffffffffffffffffffffffffffffffffffffff021916908373ffffffffffffffffffffffffffffffffffffffff1602179055506020820151816001015560408201518160020160006101000a81548160ff02191690831515021790555060608201518160020160016101000a81548160ff0219169083151502179055505050600180549050600260003373ffffffffffffffffffffffffffffffffffffffff1673ffffffffffffffffffffffffffffffffffffffff168152602001908152602001600020819055508273ffffffffffffffffffffffffffffffffffffffff166108fc349081150290604051600060405180830381858888f193505050501580156113b1573d6000803e3d6000fd5b507f4d6145cb353792ba8c39c4edf435ce7b49aaf9613bca0161e8e0ee00f8270a0f3383600001516040516113e7929190612335565b60405180910390a150505050565b600080600260008473ffffffffffffffffffffffffffffffffffffffff1673ffffffffffffffffffffffffffffffffffffffff1681526020019081526020016000205414159050919050565b806000600260008373ffffffffffffffffffffffffffffffffffffffff1673ffffffffffffffffffffffffffffffffffffffff168152602001908152602001600020549050600081036114c9576040517f08c379a00000000000000000000000000000000000000000000000000000000081526004016114c0906120ba565b60405180910390fd5b60008060009054906101000a900473ffffffffffffffffffffffffffffffffffffffff1673ffffffffffffffffffffffffffffffffffffffff1663358177736040518060400160405280600681526020017f706f6c69637900000000000000000000000000000000000000000000000000008152506040518263ffffffff1660e01b815260040161155a9190612159565b602060405180830381865afa158015611577573d6000803e3d6000fd5b505050506040513d601f19601f8201168201806040525081019061159b9190612190565b905060008173ffffffffffffffffffffffffffffffffffffffff1663dbc837c56040518163ffffffff1660e01b8152600401602060405180830381865afa1580156115ea573d6000803e3d6000fd5b505050506040513d601f19601f8201168201806040525081019061160e91906121fb565b90508073ffffffffffffffffffffffffffffffffffffffff163373ffffffffffffffffffffffffffffffffffffffff161461167e576040517f08c379a00000000000000000000000000000000000000000000000000000000081526004016116759061229a565b60405180910390fd5b60008060009054906101000a900473ffffffffffffffffffffffffffffffffffffffff1673ffffffffffffffffffffffffffffffffffffffff1663358177736040518060400160405280600681526020017f706f6c69637900000000000000000000000000000000000000000000000000008152506040518263ffffffff1660e01b815260040161170f9190612159565b602060405180830381865afa15801561172c573d6000803e3d6000fd5b505050506040513d601f19601f820116820180604052508101906117509190612190565b905060006001600260008973ffffffffffffffffffffffffffffffffffffffff1673ffffffffffffffffffffffffffffffffffffffff168152602001908152602001600020546117a0919061238d565b905060018082815481106117b7576117b66123c1565b5b906000526020600020906003020160020160006101000a81548160ff02191690831515021790555060008273ffffffffffffffffffffffffffffffffffffffff16635eb7d95a896040518263ffffffff1660e01b815260040161181a91906122c9565b602060405180830381865afa158015611837573d6000803e3d6000fd5b505050506040513d601f19601f8201168201806040525081019061185b91906122f9565b90507fb71dc9ae42731f50f6d57159752c8267d98b3d195b2dd32a360b4d44e5078137888260405161188e929190612335565b60405180910390a15050505050505050565b60606001805480602002602001604051908101604052809291908181526020016000905b8282101561198c57838290600052602060002090600302016040518060800160405290816000820160009054906101000a900473ffffffffffffffffffffffffffffffffffffffff1673ffffffffffffffffffffffffffffffffffffffff1673ffffffffffffffffffffffffffffffffffffffff168152602001600182015481526020016002820160009054906101000a900460ff161515151581526020016002820160019054906101000a900460ff161515151581525050815260200190600101906118c4565b50505050905090565b806000600260008373ffffffffffffffffffffffffffffffffffffffff1673ffffffffffffffffffffffffffffffffffffffff16815260200190815260200160002054905060008103611a1d576040517f08c379a0000000000000000000000000000000000000000000000000000000008152600401611a14906120ba565b60405180910390fd5b6000600260008573ffffffffffffffffffffffffffffffffffffffff1673ffffffffffffffffffffffffffffffffffffffff1681526020019081526020016000205490506000600260008673ffffffffffffffffffffffffffffffffffffffff1673ffffffffffffffffffffffffffffffffffffffff168152602001908152602001600020819055508060018054905014611c775780600260006001808080549050611ac9919061238d565b81548110611ada57611ad96123c1565b5b906000526020600020906003020160000160009054906101000a900473ffffffffffffffffffffffffffffffffffffffff1673ffffffffffffffffffffffffffffffffffffffff1673ffffffffffffffffffffffffffffffffffffffff168152602001908152602001600020819055506001808080549050611b5c919061238d565b81548110611b6d57611b6c6123c1565b5b906000526020600020906003020160018083611b89919061238d565b81548110611b9a57611b996123c1565b5b90600052602060002090600302016000820160009054906101000a900473ffffffffffffffffffffffffffffffffffffffff168160000160006101000a81548173ffffffffffffffffffffffffffffffffffffffff021916908373ffffffffffffffffffffffffffffffffffffffff160217905550600182015481600101556002820160009054906101000a900460ff168160020160006101000a81548160ff0219169083151502179055506002820160019054906101000a900460ff168160020160016101000a81548160ff0219169083151502179055509050505b6001805480611c8957611c88612b15565b5b6001900381819060005260206000209060030201600080820160006101000a81549073ffffffffffffffffffffffffffffffffffffffff021916905560018201600090556002820160006101000a81549060ff02191690556002820160016101000a81549060ff02191690555050905550505050565b6040518060800160405280600073ffffffffffffffffffffffffffffffffffffffff168152602001600081526020016000151581526020016000151581525090565b6000604051905090565b600080fd5b600073ffffffffffffffffffffffffffffffffffffffff82169050919050565b6000611d7b82611d50565b9050919050565b611d8b81611d70565b8114611d9657600080fd5b50565b600081359050611da881611d82565b92915050565b600060208284031215611dc457611dc3611d4b565b5b6000611dd284828501611d99565b91505092915050565b611de481611d70565b82525050565b6000819050919050565b611dfd81611dea565b82525050565b60008115159050919050565b611e1881611e03565b82525050565b608082016000820151611e346000850182611ddb565b506020820151611e476020850182611df4565b506040820151611e5a6040850182611e0f565b506060820151611e6d6060850182611e0f565b50505050565b6000608082019050611e886000830184611e1e565b92915050565b611e9781611dea565b8114611ea257600080fd5b50565b600081359050611eb481611e8e565b92915050565b600060208284031215611ed057611ecf611d4b565b5b6000611ede84828501611ea5565b91505092915050565b611ef081611e03565b82525050565b6000602082019050611f0b6000830184611ee7565b92915050565b600081519050919050565b600082825260208201905092915050565b6000819050602082019050919050565b608082016000820151611f536000850182611ddb565b506020820151611f666020850182611df4565b506040820151611f796040850182611e0f565b506060820151611f8c6060850182611e0f565b50505050565b6000611f9e8383611f3d565b60808301905092915050565b6000602082019050919050565b6000611fc282611f11565b611fcc8185611f1c565b9350611fd783611f2d565b8060005b83811015612008578151611fef8882611f92565b9750611ffa83611faa565b925050600181019050611fdb565b5085935050505092915050565b6000602082019050818103600083015261202f8184611fb7565b905092915050565b600082825260208201905092915050565b7f506f6c69637920686f6c64657220646f65736e2774206861766520616e79206360008201527f6c61696d206170706c69636174696f6e73000000000000000000000000000000602082015250565b60006120a4603183612037565b91506120af82612048565b604082019050919050565b600060208201905081810360008301526120d381612097565b9050919050565b600081519050919050565b60005b838110156121035780820151818401526020810190506120e8565b60008484015250505050565b6000601f19601f8301169050919050565b600061212b826120da565b6121358185612037565b93506121458185602086016120e5565b61214e8161210f565b840191505092915050565b600060208201905081810360008301526121738184612120565b905092915050565b60008151905061218a81611d82565b92915050565b6000602082840312156121a6576121a5611d4b565b5b60006121b48482850161217b565b91505092915050565b60006121c882611d50565b9050919050565b6121d8816121bd565b81146121e357600080fd5b50565b6000815190506121f5816121cf565b92915050565b60006020828403121561221157612210611d4b565b5b600061221f848285016121e6565b91505092915050565b7f4f6e6c792074686520696e73757265722063616e2076657269667920636c616960008201527f6d73000000000000000000000000000000000000000000000000000000000000602082015250565b6000612284602283612037565b915061228f82612228565b604082019050919050565b600060208201905081810360008301526122b381612277565b9050919050565b6122c381611d70565b82525050565b60006020820190506122de60008301846122ba565b92915050565b6000815190506122f381611e8e565b92915050565b60006020828403121561230f5761230e611d4b565b5b600061231d848285016122e4565b91505092915050565b61232f81611dea565b82525050565b600060408201905061234a60008301856122ba565b6123576020830184612326565b9392505050565b7f4e487b7100000000000000000000000000000000000000000000000000000000600052601160045260246000fd5b600061239882611dea565b91506123a383611dea565b92508282039050818111156123bb576123ba61235e565b5b92915050565b7f4e487b7100000000000000000000000000000000000000000000000000000000600052603260045260246000fd5b7f436c61696d20686173206e6f74206265656e2076657269666965640000000000600082015250565b6000612426601b83612037565b9150612431826123f0565b602082019050919050565b6000602082019050818103600083015261245581612419565b9050919050565b7f436c61696d2068617320616c7265616479206265656e20706169640000000000600082015250565b6000612492601b83612037565b915061249d8261245c565b602082019050919050565b600060208201905081810360008301526124c181612485565b9050919050565b6124d1816121bd565b82525050565b60006040820190506124ec60008301856124c8565b6124f96020830184612326565b9392505050565b600080fd5b7f4e487b7100000000000000000000000000000000000000000000000000000000600052604160045260246000fd5b61253d8261210f565b810181811067ffffffffffffffff8211171561255c5761255b612505565b5b80604052505050565b600061256f611d41565b905061257b8282612534565b919050565b6000610100828403121561259757612596612500565b5b6125a2610100612565565b905060006125b2848285016122e4565b60008301525060206125c6848285016122e4565b60208301525060406125da848285016122e4565b60408301525060606125ee848285016122e4565b6060830152506080612602848285016122e4565b60808301525060a0612616848285016122e4565b60a08301525060c061262a848285016122e4565b60c08301525060e061263e848285016122e4565b60e08301525092915050565b6000610100828403121561266157612660611d4b565b5b600061266f84828501612580565b91505092915050565b7f506f6c696379686f6c6465722073686f756c642070617920646564756374696260008201527f6c6520666f72206170706c79696e670000000000000000000000000000000000602082015250565b60006126d4602f83612037565b91506126df82612678565b604082019050919050565b60006020820190508181036000830152612703816126c7565b9050919050565b7f436c61696d20616d6f756e74206d75737420626520677265617465722074686160008201527f6e207a65726f0000000000000000000000000000000000000000000000000000602082015250565b6000612766602683612037565b91506127718261270a565b604082019050919050565b6000602082019050818103600083015261279581612759565b9050919050565b7f436c61696d20616d6f756e74206d757374206265206c657373207468616e206f60008201527f7220657175616c20746f20706f6c696379206c696d6974000000000000000000602082015250565b60006127f8603783612037565b91506128038261279c565b604082019050919050565b60006020820190508181036000830152612827816127eb565b9050919050565b61283781611e03565b811461284257600080fd5b50565b6000815190506128548161282e565b92915050565b6000602082840312156128705761286f611d4b565b5b600061287e84828501612845565b91505092915050565b7f4f6e6c7920706f6c69637920686f6c646572732063616e207375626d6974206360008201527f6c61696d73000000000000000000000000000000000000000000000000000000602082015250565b60006128e3602583612037565b91506128ee82612887565b604082019050919050565b60006020820190508181036000830152612912816128d6565b9050919050565b7f506f6c6963792069736e27742061637469766174656400000000000000000000600082015250565b600061294f601683612037565b915061295a82612919565b602082019050919050565b6000602082019050818103600083015261297e81612942565b9050919050565b7f50796d656e7420646561646c696e6520686173206265656e206d69737365642e60008201527f2054686520706f6c69637920697320696e616374697665000000000000000000602082015250565b60006129e1603783612037565b91506129ec82612985565b604082019050919050565b60006020820190508181036000830152612a10816129d4565b9050919050565b7f506f6c6963792065787069726564000000000000000000000000000000000000600082015250565b6000612a4d600e83612037565b9150612a5882612a17565b602082019050919050565b60006020820190508181036000830152612a7c81612a40565b9050919050565b7f506f6c69637920686f6c6465722068617320616c7265616479206170706c696560008201527f6420666f7220636c61696d000000000000000000000000000000000000000000602082015250565b6000612adf602b83612037565b9150612aea82612a83565b604082019050919050565b60006020820190508181036000830152612b0e81612ad2565b9050919050565b7f4e487b7100000000000000000000000000000000000000000000000000000000600052603160045260246000fdfea2646970667358221220b6963046e26579596738a6b75242f2008aff12cfa59479ab555a69a754adf50564736f6c63430008120033",
  "linkReferences": {},
  "deployedLinkReferences": {}
}