{
  "_format": "hh-sol-artifact-1",
  "contractName": "ClaimApplication",
  "sourceName": "contracts/ClaimApplication.sol",
  "abi": [
    {
      "inputs": [
        {
          "internalType": "address",
          "name": "_contractregistryAddress",
          "type": "address"
        }
      ],
      "stateMutability": "nonpayable",
      "type": "constructor"
    },
    {
      "anonymous": false,
      "inputs": [
        {
          "indexed": false,
          "internalType": "address",
          "name": "_policyHolder",
          "type": "address"
        },
        {
          "indexed": false,
          "internalType": "uint256",
          "name": "_policyNumber",
          "type": "uint256"
        }
      ],
      "name": "ClaimApplicationApproved",
      "type": "event"
    },
    {
      "anonymous": false,
      "inputs": [
        {
          "indexed": false,
          "internalType": "address",
          "name": "_policyHolder",
          "type": "address"
        },
        {
          "indexed": false,
          "internalType": "uint256",
          "name": "_policyNumber",
          "type": "uint256"
        }
      ],
      "name": "ClaimApplicationRejected",
      "type": "event"
    },
    {
      "anonymous": false,
      "inputs": [
        {
          "indexed": false,
          "internalType": "address",
          "name": "_policyHolder",
          "type": "address"
        },
        {
          "indexed": false,
          "internalType": "uint256",
          "name": "_policyNumber",
          "type": "uint256"
        }
      ],
      "name": "ClaimApplicationSubmitted",
      "type": "event"
    },
    {
      "anonymous": false,
      "inputs": [
        {
          "indexed": false,
          "internalType": "address",
          "name": "_policyHolder",
          "type": "address"
        },
        {
          "indexed": false,
          "internalType": "uint256",
          "name": "_policyNumber",
          "type": "uint256"
        }
      ],
      "name": "ClaimApplicationVerified",
      "type": "event"
    },
    {
      "inputs": [
        {
          "internalType": "address",
          "name": "_policyHolder",
          "type": "address"
        }
      ],
      "name": "getClaim",
      "outputs": [
        {
          "components": [
            {
              "internalType": "address",
              "name": "policyHolder",
              "type": "address"
            },
            {
              "internalType": "uint256",
              "name": "amount",
              "type": "uint256"
            },
            {
              "internalType": "bool",
              "name": "verified",
              "type": "bool"
            },
            {
              "internalType": "bool",
              "name": "paid",
              "type": "bool"
            }
          ],
          "internalType": "struct ClaimApplication.Claim",
          "name": "",
          "type": "tuple"
        }
      ],
      "stateMutability": "view",
      "type": "function"
    },
    {
      "inputs": [
        {
          "internalType": "address",
          "name": "_policyHolder",
          "type": "address"
        }
      ],
      "name": "payClaim",
      "outputs": [],
      "stateMutability": "nonpayable",
      "type": "function"
    },
    {
      "inputs": [
        {
          "internalType": "address",
          "name": "_policyHolder",
          "type": "address"
        }
      ],
      "name": "rejectClaim",
      "outputs": [],
      "stateMutability": "nonpayable",
      "type": "function"
    },
    {
      "inputs": [
        {
          "internalType": "uint256",
          "name": "_ClaimAmount",
          "type": "uint256"
        }
      ],
      "name": "submitClaim",
      "outputs": [],
      "stateMutability": "payable",
      "type": "function"
    },
    {
      "inputs": [
        {
          "internalType": "address",
          "name": "_policyHolder",
          "type": "address"
        }
      ],
      "name": "verifyClaim",
      "outputs": [],
      "stateMutability": "nonpayable",
      "type": "function"
    }
  ],
  "bytecode": "0x60806040523480156200001157600080fd5b50604051620028ac380380620028ac8339818101604052810190620000379190620000e8565b806000806101000a81548173ffffffffffffffffffffffffffffffffffffffff021916908373ffffffffffffffffffffffffffffffffffffffff160217905550506200011a565b600080fd5b600073ffffffffffffffffffffffffffffffffffffffff82169050919050565b6000620000b08262000083565b9050919050565b620000c281620000a3565b8114620000ce57600080fd5b50565b600081519050620000e281620000b7565b92915050565b6000602082840312156200010157620001006200007e565b5b60006200011184828501620000d1565b91505092915050565b612782806200012a6000396000f3fe60806040526004361061004a5760003560e01c80631f30ed7a1461004f57806336b9418a146100785780634cd3723a146100a15780636aa14a96146100de578063a80d520c146100fa575b600080fd5b34801561005b57600080fd5b5061007660048036038101906100719190611b98565b610123565b005b34801561008457600080fd5b5061009f600480360381019061009a9190611b98565b6104fd565b005b3480156100ad57600080fd5b506100c860048036038101906100c39190611b98565b610a65565b6040516100d59190611c5d565b60405180910390f35b6100f860048036038101906100f39190611ca4565b610c0b565b005b34801561010657600080fd5b50610121600480360381019061011c9190611b98565b611320565b005b806000600260008373ffffffffffffffffffffffffffffffffffffffff1673ffffffffffffffffffffffffffffffffffffffff168152602001908152602001600020549050600081036101ab576040517f08c379a00000000000000000000000000000000000000000000000000000000081526004016101a290611d54565b60405180910390fd5b60008060009054906101000a900473ffffffffffffffffffffffffffffffffffffffff1673ffffffffffffffffffffffffffffffffffffffff1663358177736040518060400160405280600681526020017f706f6c69637900000000000000000000000000000000000000000000000000008152506040518263ffffffff1660e01b815260040161023c9190611df3565b602060405180830381865afa158015610259573d6000803e3d6000fd5b505050506040513d601f19601f8201168201806040525081019061027d9190611e2a565b905060008173ffffffffffffffffffffffffffffffffffffffff1663dbc837c56040518163ffffffff1660e01b8152600401602060405180830381865afa1580156102cc573d6000803e3d6000fd5b505050506040513d601f19601f820116820180604052508101906102f09190611e95565b90508073ffffffffffffffffffffffffffffffffffffffff163373ffffffffffffffffffffffffffffffffffffffff1614610360576040517f08c379a000000000000000000000000000000000000000000000000000000000815260040161035790611f34565b60405180910390fd5b60008060009054906101000a900473ffffffffffffffffffffffffffffffffffffffff1673ffffffffffffffffffffffffffffffffffffffff1663358177736040518060400160405280600681526020017f706f6c69637900000000000000000000000000000000000000000000000000008152506040518263ffffffff1660e01b81526004016103f19190611df3565b602060405180830381865afa15801561040e573d6000803e3d6000fd5b505050506040513d601f19601f820116820180604052508101906104329190611e2a565b905061043d8661177f565b60008173ffffffffffffffffffffffffffffffffffffffff16635eb7d95a886040518263ffffffff1660e01b81526004016104789190611f63565b602060405180830381865afa158015610495573d6000803e3d6000fd5b505050506040513d601f19601f820116820180604052508101906104b99190611f93565b90507f34cf79016e20b1e5bd3a95ecca27b31ff74cec27128a1b648c838f5c39477a1d87826040516104ec929190611fcf565b60405180910390a150505050505050565b60008060009054906101000a900473ffffffffffffffffffffffffffffffffffffffff1673ffffffffffffffffffffffffffffffffffffffff1663358177736040518060400160405280600681526020017f706f6c69637900000000000000000000000000000000000000000000000000008152506040518263ffffffff1660e01b815260040161058e9190611df3565b602060405180830381865afa1580156105ab573d6000803e3d6000fd5b505050506040513d601f19601f820116820180604052508101906105cf9190611e2a565b905060008173ffffffffffffffffffffffffffffffffffffffff1663dbc837c56040518163ffffffff1660e01b8152600401602060405180830381865afa15801561061e573d6000803e3d6000fd5b505050506040513d601f19601f820116820180604052508101906106429190611e95565b90508073ffffffffffffffffffffffffffffffffffffffff163373ffffffffffffffffffffffffffffffffffffffff16146106b2576040517f08c379a00000000000000000000000000000000000000000000000000000000081526004016106a990611f34565b60405180910390fd5b60008060009054906101000a900473ffffffffffffffffffffffffffffffffffffffff1673ffffffffffffffffffffffffffffffffffffffff1663358177736040518060400160405280600681526020017f706f6c69637900000000000000000000000000000000000000000000000000008152506040518263ffffffff1660e01b81526004016107439190611df3565b602060405180830381865afa158015610760573d6000803e3d6000fd5b505050506040513d601f19601f820116820180604052508101906107849190611e2a565b905060008173ffffffffffffffffffffffffffffffffffffffff16635eb7d95a866040518263ffffffff1660e01b81526004016107c19190611f63565b602060405180830381865afa1580156107de573d6000803e3d6000fd5b505050506040513d601f19601f820116820180604052508101906108029190611f93565b905060006001600260008873ffffffffffffffffffffffffffffffffffffffff1673ffffffffffffffffffffffffffffffffffffffff168152602001908152602001600020546108529190612027565b9050600115156001828154811061086c5761086b61205b565b5b906000526020600020906003020160020160009054906101000a900460ff161515146108cd576040517f08c379a00000000000000000000000000000000000000000000000000000000081526004016108c4906120d6565b60405180910390fd5b60001515600182815481106108e5576108e461205b565b5b906000526020600020906003020160020160019054906101000a900460ff16151514610946576040517f08c379a000000000000000000000000000000000000000000000000000000000815260040161093d90612142565b60405180910390fd5b600180828154811061095b5761095a61205b565b5b906000526020600020906003020160020160016101000a81548160ff0219169083151502179055506000600182815481106109995761099861205b565b5b90600052602060002090600302016001015490506109b68761177f565b8373ffffffffffffffffffffffffffffffffffffffff166350802e3f88836040518363ffffffff1660e01b81526004016109f1929190612171565b600060405180830381600087803b158015610a0b57600080fd5b505af1158015610a1f573d6000803e3d6000fd5b505050507f9399804fcdc49f981ddb364feccbc1cf0b8430761121f70e86695ff5abdb742f8784604051610a54929190611fcf565b60405180910390a150505050505050565b610a6d611ae9565b816000600260008373ffffffffffffffffffffffffffffffffffffffff1673ffffffffffffffffffffffffffffffffffffffff16815260200190815260200160002054905060008103610af5576040517f08c379a0000000000000000000000000000000000000000000000000000000008152600401610aec90611d54565b60405180910390fd5b600180600260008773ffffffffffffffffffffffffffffffffffffffff1673ffffffffffffffffffffffffffffffffffffffff16815260200190815260200160002054610b429190612027565b81548110610b5357610b5261205b565b5b90600052602060002090600302016040518060800160405290816000820160009054906101000a900473ffffffffffffffffffffffffffffffffffffffff1673ffffffffffffffffffffffffffffffffffffffff1673ffffffffffffffffffffffffffffffffffffffff168152602001600182015481526020016002820160009054906101000a900460ff161515151581526020016002820160019054906101000a900460ff16151515158152505092505050919050565b60008060009054906101000a900473ffffffffffffffffffffffffffffffffffffffff1673ffffffffffffffffffffffffffffffffffffffff1663358177736040518060400160405280600681526020017f706f6c69637900000000000000000000000000000000000000000000000000008152506040518263ffffffff1660e01b8152600401610c9c9190611df3565b602060405180830381865afa158015610cb9573d6000803e3d6000fd5b505050506040513d601f19601f82011682018060405250810190610cdd9190611e2a565b905060008173ffffffffffffffffffffffffffffffffffffffff166345f23e29336040518263ffffffff1660e01b8152600401610d1a9190611f63565b61010060405180830381865afa158015610d38573d6000803e3d6000fd5b505050506040513d601f19601f82011682018060405250810190610d5c91906122e4565b90508060a001513414610da4576040517f08c379a0000000000000000000000000000000000000000000000000000000008152600401610d9b90612384565b60405180910390fd5b60008311610de7576040517f08c379a0000000000000000000000000000000000000000000000000000000008152600401610dde90612416565b60405180910390fd5b8173ffffffffffffffffffffffffffffffffffffffff1663b6bbad12336040518263ffffffff1660e01b8152600401610e209190611f63565b602060405180830381865afa158015610e3d573d6000803e3d6000fd5b505050506040513d601f19601f82011682018060405250810190610e619190612462565b610ea0576040517f08c379a0000000000000000000000000000000000000000000000000000000008152600401610e9790612501565b60405180910390fd5b8173ffffffffffffffffffffffffffffffffffffffff16637fcdf27a336040518263ffffffff1660e01b8152600401610ed99190611f63565b602060405180830381865afa158015610ef6573d6000803e3d6000fd5b505050506040513d601f19601f82011682018060405250810190610f1a9190612462565b610f59576040517f08c379a0000000000000000000000000000000000000000000000000000000008152600401610f509061256d565b60405180910390fd5b8173ffffffffffffffffffffffffffffffffffffffff166319ae3c6a336040518263ffffffff1660e01b8152600401610f929190611f63565b602060405180830381865afa158015610faf573d6000803e3d6000fd5b505050506040513d601f19601f82011682018060405250810190610fd39190612462565b611012576040517f08c379a0000000000000000000000000000000000000000000000000000000008152600401611009906125ff565b60405180910390fd5b8173ffffffffffffffffffffffffffffffffffffffff16630f78984b336040518263ffffffff1660e01b815260040161104b9190611f63565b602060405180830381865afa158015611068573d6000803e3d6000fd5b505050506040513d601f19601f8201168201806040525081019061108c9190612462565b6110cb576040517f08c379a00000000000000000000000000000000000000000000000000000000081526004016110c29061266b565b60405180910390fd5b6000600260003373ffffffffffffffffffffffffffffffffffffffff1673ffffffffffffffffffffffffffffffffffffffff168152602001908152602001600020541461114d576040517f08c379a0000000000000000000000000000000000000000000000000000000008152600401611144906126fd565b60405180910390fd5b600060405180608001604052803373ffffffffffffffffffffffffffffffffffffffff168152602001858152602001600015158152602001600015158152509050600181908060018154018082558091505060019003906000526020600020906003020160009091909190915060008201518160000160006101000a81548173ffffffffffffffffffffffffffffffffffffffff021916908373ffffffffffffffffffffffffffffffffffffffff1602179055506020820151816001015560408201518160020160006101000a81548160ff02191690831515021790555060608201518160020160016101000a81548160ff0219169083151502179055505050600180549050600260003373ffffffffffffffffffffffffffffffffffffffff1673ffffffffffffffffffffffffffffffffffffffff168152602001908152602001600020819055508273ffffffffffffffffffffffffffffffffffffffff166108fc349081150290604051600060405180830381858888f193505050501580156112dc573d6000803e3d6000fd5b507f4d6145cb353792ba8c39c4edf435ce7b49aaf9613bca0161e8e0ee00f8270a0f338360000151604051611312929190611fcf565b60405180910390a150505050565b806000600260008373ffffffffffffffffffffffffffffffffffffffff1673ffffffffffffffffffffffffffffffffffffffff168152602001908152602001600020549050600081036113a8576040517f08c379a000000000000000000000000000000000000000000000000000000000815260040161139f90611d54565b60405180910390fd5b60008060009054906101000a900473ffffffffffffffffffffffffffffffffffffffff1673ffffffffffffffffffffffffffffffffffffffff1663358177736040518060400160405280600681526020017f706f6c69637900000000000000000000000000000000000000000000000000008152506040518263ffffffff1660e01b81526004016114399190611df3565b602060405180830381865afa158015611456573d6000803e3d6000fd5b505050506040513d601f19601f8201168201806040525081019061147a9190611e2a565b905060008173ffffffffffffffffffffffffffffffffffffffff1663dbc837c56040518163ffffffff1660e01b8152600401602060405180830381865afa1580156114c9573d6000803e3d6000fd5b505050506040513d601f19601f820116820180604052508101906114ed9190611e95565b90508073ffffffffffffffffffffffffffffffffffffffff163373ffffffffffffffffffffffffffffffffffffffff161461155d576040517f08c379a000000000000000000000000000000000000000000000000000000000815260040161155490611f34565b60405180910390fd5b60008060009054906101000a900473ffffffffffffffffffffffffffffffffffffffff1673ffffffffffffffffffffffffffffffffffffffff1663358177736040518060400160405280600681526020017f706f6c69637900000000000000000000000000000000000000000000000000008152506040518263ffffffff1660e01b81526004016115ee9190611df3565b602060405180830381865afa15801561160b573d6000803e3d6000fd5b505050506040513d601f19601f8201168201806040525081019061162f9190611e2a565b905060006001600260008973ffffffffffffffffffffffffffffffffffffffff1673ffffffffffffffffffffffffffffffffffffffff1681526020019081526020016000205461167f9190612027565b905060018082815481106116965761169561205b565b5b906000526020600020906003020160020160006101000a81548160ff02191690831515021790555060008273ffffffffffffffffffffffffffffffffffffffff16635eb7d95a896040518263ffffffff1660e01b81526004016116f99190611f63565b602060405180830381865afa158015611716573d6000803e3d6000fd5b505050506040513d601f19601f8201168201806040525081019061173a9190611f93565b90507fb71dc9ae42731f50f6d57159752c8267d98b3d195b2dd32a360b4d44e5078137888260405161176d929190611fcf565b60405180910390a15050505050505050565b806000600260008373ffffffffffffffffffffffffffffffffffffffff1673ffffffffffffffffffffffffffffffffffffffff16815260200190815260200160002054905060008103611807576040517f08c379a00000000000000000000000000000000000000000000000000000000081526004016117fe90611d54565b60405180910390fd5b6000600260008573ffffffffffffffffffffffffffffffffffffffff1673ffffffffffffffffffffffffffffffffffffffff1681526020019081526020016000205490506000600260008673ffffffffffffffffffffffffffffffffffffffff1673ffffffffffffffffffffffffffffffffffffffff168152602001908152602001600020819055508060018054905014611a6157806002600060018080805490506118b39190612027565b815481106118c4576118c361205b565b5b906000526020600020906003020160000160009054906101000a900473ffffffffffffffffffffffffffffffffffffffff1673ffffffffffffffffffffffffffffffffffffffff1673ffffffffffffffffffffffffffffffffffffffff1681526020019081526020016000208190555060018080805490506119469190612027565b815481106119575761195661205b565b5b9060005260206000209060030201600180836119739190612027565b815481106119845761198361205b565b5b90600052602060002090600302016000820160009054906101000a900473ffffffffffffffffffffffffffffffffffffffff168160000160006101000a81548173ffffffffffffffffffffffffffffffffffffffff021916908373ffffffffffffffffffffffffffffffffffffffff160217905550600182015481600101556002820160009054906101000a900460ff168160020160006101000a81548160ff0219169083151502179055506002820160019054906101000a900460ff168160020160016101000a81548160ff0219169083151502179055509050505b6001805480611a7357611a7261271d565b5b6001900381819060005260206000209060030201600080820160006101000a81549073ffffffffffffffffffffffffffffffffffffffff021916905560018201600090556002820160006101000a81549060ff02191690556002820160016101000a81549060ff02191690555050905550505050565b6040518060800160405280600073ffffffffffffffffffffffffffffffffffffffff168152602001600081526020016000151581526020016000151581525090565b6000604051905090565b600080fd5b600073ffffffffffffffffffffffffffffffffffffffff82169050919050565b6000611b6582611b3a565b9050919050565b611b7581611b5a565b8114611b8057600080fd5b50565b600081359050611b9281611b6c565b92915050565b600060208284031215611bae57611bad611b35565b5b6000611bbc84828501611b83565b91505092915050565b611bce81611b5a565b82525050565b6000819050919050565b611be781611bd4565b82525050565b60008115159050919050565b611c0281611bed565b82525050565b608082016000820151611c1e6000850182611bc5565b506020820151611c316020850182611bde565b506040820151611c446040850182611bf9565b506060820151611c576060850182611bf9565b50505050565b6000608082019050611c726000830184611c08565b92915050565b611c8181611bd4565b8114611c8c57600080fd5b50565b600081359050611c9e81611c78565b92915050565b600060208284031215611cba57611cb9611b35565b5b6000611cc884828501611c8f565b91505092915050565b600082825260208201905092915050565b7f506f6c69637920686f6c64657220646f65736e2774206861766520616e79206360008201527f6c61696d206170706c69636174696f6e73000000000000000000000000000000602082015250565b6000611d3e603183611cd1565b9150611d4982611ce2565b604082019050919050565b60006020820190508181036000830152611d6d81611d31565b9050919050565b600081519050919050565b60005b83811015611d9d578082015181840152602081019050611d82565b60008484015250505050565b6000601f19601f8301169050919050565b6000611dc582611d74565b611dcf8185611cd1565b9350611ddf818560208601611d7f565b611de881611da9565b840191505092915050565b60006020820190508181036000830152611e0d8184611dba565b905092915050565b600081519050611e2481611b6c565b92915050565b600060208284031215611e4057611e3f611b35565b5b6000611e4e84828501611e15565b91505092915050565b6000611e6282611b3a565b9050919050565b611e7281611e57565b8114611e7d57600080fd5b50565b600081519050611e8f81611e69565b92915050565b600060208284031215611eab57611eaa611b35565b5b6000611eb984828501611e80565b91505092915050565b7f4f6e6c792074686520696e73757265722063616e2076657269667920636c616960008201527f6d73000000000000000000000000000000000000000000000000000000000000602082015250565b6000611f1e602283611cd1565b9150611f2982611ec2565b604082019050919050565b60006020820190508181036000830152611f4d81611f11565b9050919050565b611f5d81611b5a565b82525050565b6000602082019050611f786000830184611f54565b92915050565b600081519050611f8d81611c78565b92915050565b600060208284031215611fa957611fa8611b35565b5b6000611fb784828501611f7e565b91505092915050565b611fc981611bd4565b82525050565b6000604082019050611fe46000830185611f54565b611ff16020830184611fc0565b9392505050565b7f4e487b7100000000000000000000000000000000000000000000000000000000600052601160045260246000fd5b600061203282611bd4565b915061203d83611bd4565b925082820390508181111561205557612054611ff8565b5b92915050565b7f4e487b7100000000000000000000000000000000000000000000000000000000600052603260045260246000fd5b7f436c61696d20686173206e6f74206265656e2076657269666965640000000000600082015250565b60006120c0601b83611cd1565b91506120cb8261208a565b602082019050919050565b600060208201905081810360008301526120ef816120b3565b9050919050565b7f436c61696d2068617320616c7265616479206265656e20706169640000000000600082015250565b600061212c601b83611cd1565b9150612137826120f6565b602082019050919050565b6000602082019050818103600083015261215b8161211f565b9050919050565b61216b81611e57565b82525050565b60006040820190506121866000830185612162565b6121936020830184611fc0565b9392505050565b600080fd5b7f4e487b7100000000000000000000000000000000000000000000000000000000600052604160045260246000fd5b6121d782611da9565b810181811067ffffffffffffffff821117156121f6576121f561219f565b5b80604052505050565b6000612209611b2b565b905061221582826121ce565b919050565b600061010082840312156122315761223061219a565b5b61223c6101006121ff565b9050600061224c84828501611f7e565b600083015250602061226084828501611f7e565b602083015250604061227484828501611f7e565b604083015250606061228884828501611f7e565b606083015250608061229c84828501611f7e565b60808301525060a06122b084828501611f7e565b60a08301525060c06122c484828501611f7e565b60c08301525060e06122d884828501611f7e565b60e08301525092915050565b600061010082840312156122fb576122fa611b35565b5b60006123098482850161221a565b91505092915050565b7f506f6c696379686f6c6465722073686f756c642070617920646564756374696260008201527f6c6520666f72206170706c79696e670000000000000000000000000000000000602082015250565b600061236e602f83611cd1565b915061237982612312565b604082019050919050565b6000602082019050818103600083015261239d81612361565b9050919050565b7f436c61696d20616d6f756e74206d75737420626520677265617465722074686160008201527f6e207a65726f0000000000000000000000000000000000000000000000000000602082015250565b6000612400602683611cd1565b915061240b826123a4565b604082019050919050565b6000602082019050818103600083015261242f816123f3565b9050919050565b61243f81611bed565b811461244a57600080fd5b50565b60008151905061245c81612436565b92915050565b60006020828403121561247857612477611b35565b5b60006124868482850161244d565b91505092915050565b7f4f6e6c7920706f6c69637920686f6c646572732063616e207375626d6974206360008201527f6c61696d73000000000000000000000000000000000000000000000000000000602082015250565b60006124eb602583611cd1565b91506124f68261248f565b604082019050919050565b6000602082019050818103600083015261251a816124de565b9050919050565b7f506f6c6963792069736e27742061637469766174656400000000000000000000600082015250565b6000612557601683611cd1565b915061256282612521565b602082019050919050565b600060208201905081810360008301526125868161254a565b9050919050565b7f50796d656e7420646561646c696e6520686173206265656e206d69737365642e60008201527f2054686520706f6c69637920697320696e616374697665000000000000000000602082015250565b60006125e9603783611cd1565b91506125f48261258d565b604082019050919050565b60006020820190508181036000830152612618816125dc565b9050919050565b7f506f6c6963792065787069726564000000000000000000000000000000000000600082015250565b6000612655600e83611cd1565b91506126608261261f565b602082019050919050565b6000602082019050818103600083015261268481612648565b9050919050565b7f506f6c69637920686f6c6465722068617320616c7265616479206170706c696560008201527f6420666f7220636c61696d000000000000000000000000000000000000000000602082015250565b60006126e7602b83611cd1565b91506126f28261268b565b604082019050919050565b60006020820190508181036000830152612716816126da565b9050919050565b7f4e487b7100000000000000000000000000000000000000000000000000000000600052603160045260246000fdfea2646970667358221220276e8ba4d6bba8280e5e228e07f2f03c468a37974bd639a359e20b36e05b9ea864736f6c63430008120033",
  "linkReferences": {},
  "deployedLinkReferences": {}
}