{
  "_format": "hh-sol-artifact-1",
  "contractName": "ClaimApplication",
  "sourceName": "contracts/ClaimApplication.sol",
  "abi": [
    {
      "inputs": [
        {
          "internalType": "address",
          "name": "_contractregistryAddress",
          "type": "address"
        }
      ],
      "stateMutability": "nonpayable",
      "type": "constructor"
    },
    {
      "anonymous": false,
      "inputs": [
        {
          "indexed": false,
          "internalType": "address",
          "name": "_policyHolder",
          "type": "address"
        },
        {
          "indexed": false,
          "internalType": "uint256",
          "name": "_policyNumber",
          "type": "uint256"
        }
      ],
      "name": "ClaimApplicationApproved",
      "type": "event"
    },
    {
      "anonymous": false,
      "inputs": [
        {
          "indexed": false,
          "internalType": "address",
          "name": "_policyHolder",
          "type": "address"
        },
        {
          "indexed": false,
          "internalType": "uint256",
          "name": "_policyNumber",
          "type": "uint256"
        }
      ],
      "name": "ClaimApplicationRejected",
      "type": "event"
    },
    {
      "anonymous": false,
      "inputs": [
        {
          "indexed": false,
          "internalType": "address",
          "name": "_policyHolder",
          "type": "address"
        },
        {
          "indexed": false,
          "internalType": "uint256",
          "name": "_policyNumber",
          "type": "uint256"
        }
      ],
      "name": "ClaimApplicationSubmitted",
      "type": "event"
    },
    {
      "anonymous": false,
      "inputs": [
        {
          "indexed": false,
          "internalType": "address",
          "name": "_policyHolder",
          "type": "address"
        },
        {
          "indexed": false,
          "internalType": "uint256",
          "name": "_policyNumber",
          "type": "uint256"
        }
      ],
      "name": "ClaimApplicationVerified",
      "type": "event"
    },
    {
      "inputs": [
        {
          "internalType": "address",
          "name": "_policyHolder",
          "type": "address"
        }
      ],
      "name": "getClaim",
      "outputs": [
        {
          "components": [
            {
              "internalType": "address",
              "name": "policyHolder",
              "type": "address"
            },
            {
              "internalType": "string",
              "name": "proof",
              "type": "string"
            },
            {
              "internalType": "uint256",
              "name": "amount",
              "type": "uint256"
            },
            {
              "internalType": "bool",
              "name": "verified",
              "type": "bool"
            },
            {
              "internalType": "bool",
              "name": "paid",
              "type": "bool"
            }
          ],
          "internalType": "struct ClaimApplication.Claim",
          "name": "",
          "type": "tuple"
        }
      ],
      "stateMutability": "view",
      "type": "function"
    },
    {
      "inputs": [],
      "name": "getClaims",
      "outputs": [
        {
          "components": [
            {
              "internalType": "address",
              "name": "policyHolder",
              "type": "address"
            },
            {
              "internalType": "string",
              "name": "proof",
              "type": "string"
            },
            {
              "internalType": "uint256",
              "name": "amount",
              "type": "uint256"
            },
            {
              "internalType": "bool",
              "name": "verified",
              "type": "bool"
            },
            {
              "internalType": "bool",
              "name": "paid",
              "type": "bool"
            }
          ],
          "internalType": "struct ClaimApplication.Claim[]",
          "name": "",
          "type": "tuple[]"
        }
      ],
      "stateMutability": "view",
      "type": "function"
    },
    {
      "inputs": [
        {
          "internalType": "address",
          "name": "_policyHolder",
          "type": "address"
        }
      ],
      "name": "hasClaimApplication",
      "outputs": [
        {
          "internalType": "bool",
          "name": "",
          "type": "bool"
        }
      ],
      "stateMutability": "view",
      "type": "function"
    },
    {
      "inputs": [
        {
          "internalType": "address",
          "name": "_policyHolder",
          "type": "address"
        }
      ],
      "name": "payClaim",
      "outputs": [],
      "stateMutability": "nonpayable",
      "type": "function"
    },
    {
      "inputs": [
        {
          "internalType": "address",
          "name": "_policyHolder",
          "type": "address"
        }
      ],
      "name": "rejectClaim",
      "outputs": [],
      "stateMutability": "nonpayable",
      "type": "function"
    },
    {
      "inputs": [
        {
          "internalType": "uint256",
          "name": "_ClaimAmount",
          "type": "uint256"
        },
        {
          "internalType": "string",
          "name": "_proof",
          "type": "string"
        }
      ],
      "name": "submitClaim",
      "outputs": [],
      "stateMutability": "payable",
      "type": "function"
    },
    {
      "inputs": [
        {
          "internalType": "address",
          "name": "_policyHolder",
          "type": "address"
        }
      ],
      "name": "verifyClaim",
      "outputs": [],
      "stateMutability": "nonpayable",
      "type": "function"
    }
  ],
  "bytecode": "0x60806040523480156200001157600080fd5b50604051620033d2380380620033d28339818101604052810190620000379190620000e8565b806000806101000a81548173ffffffffffffffffffffffffffffffffffffffff021916908373ffffffffffffffffffffffffffffffffffffffff160217905550506200011a565b600080fd5b600073ffffffffffffffffffffffffffffffffffffffff82169050919050565b6000620000b08262000083565b9050919050565b620000c281620000a3565b8114620000ce57600080fd5b50565b600081519050620000e281620000b7565b92915050565b6000602082840312156200010157620001006200007e565b5b60006200011184828501620000d1565b91505092915050565b6132a8806200012a6000396000f3fe6080604052600436106100705760003560e01c80634cd3723a1161004e5780634cd3723a146100e35780637fc9668a14610120578063a80d520c1461015d578063c52822f81461018657610070565b80631f30ed7a1461007557806336b9418a1461009e57806345b46525146100c7575b600080fd5b34801561008157600080fd5b5061009c60048036038101906100979190611fc2565b6101b1565b005b3480156100aa57600080fd5b506100c560048036038101906100c09190611fc2565b61058b565b005b6100e160048036038101906100dc919061208a565b610af3565b005b3480156100ef57600080fd5b5061010a60048036038101906101059190611fc2565b6112b1565b6040516101179190612229565b60405180910390f35b34801561012c57600080fd5b5061014760048036038101906101429190611fc2565b6114e9565b604051610154919061225a565b60405180910390f35b34801561016957600080fd5b50610184600480360381019061017f9190611fc2565b611535565b005b34801561019257600080fd5b5061019b611994565b6040516101a891906123ad565b60405180910390f35b806000600260008373ffffffffffffffffffffffffffffffffffffffff1673ffffffffffffffffffffffffffffffffffffffff16815260200190815260200160002054905060008103610239576040517f08c379a000000000000000000000000000000000000000000000000000000000815260040161023090612452565b60405180910390fd5b60008060009054906101000a900473ffffffffffffffffffffffffffffffffffffffff1673ffffffffffffffffffffffffffffffffffffffff1663358177736040518060400160405280600681526020017f706f6c69637900000000000000000000000000000000000000000000000000008152506040518263ffffffff1660e01b81526004016102ca91906124ab565b602060405180830381865afa1580156102e7573d6000803e3d6000fd5b505050506040513d601f19601f8201168201806040525081019061030b91906124e2565b905060008173ffffffffffffffffffffffffffffffffffffffff1663dbc837c56040518163ffffffff1660e01b8152600401602060405180830381865afa15801561035a573d6000803e3d6000fd5b505050506040513d601f19601f8201168201806040525081019061037e919061254d565b90508073ffffffffffffffffffffffffffffffffffffffff163373ffffffffffffffffffffffffffffffffffffffff16146103ee576040517f08c379a00000000000000000000000000000000000000000000000000000000081526004016103e5906125ec565b60405180910390fd5b60008060009054906101000a900473ffffffffffffffffffffffffffffffffffffffff1673ffffffffffffffffffffffffffffffffffffffff1663358177736040518060400160405280600681526020017f706f6c69637900000000000000000000000000000000000000000000000000008152506040518263ffffffff1660e01b815260040161047f91906124ab565b602060405180830381865afa15801561049c573d6000803e3d6000fd5b505050506040513d601f19601f820116820180604052508101906104c091906124e2565b90506104cb86611b1b565b60008173ffffffffffffffffffffffffffffffffffffffff16635eb7d95a886040518263ffffffff1660e01b8152600401610506919061261b565b602060405180830381865afa158015610523573d6000803e3d6000fd5b505050506040513d601f19601f82011682018060405250810190610547919061264b565b90507f34cf79016e20b1e5bd3a95ecca27b31ff74cec27128a1b648c838f5c39477a1d878260405161057a929190612687565b60405180910390a150505050505050565b60008060009054906101000a900473ffffffffffffffffffffffffffffffffffffffff1673ffffffffffffffffffffffffffffffffffffffff1663358177736040518060400160405280600681526020017f706f6c69637900000000000000000000000000000000000000000000000000008152506040518263ffffffff1660e01b815260040161061c91906124ab565b602060405180830381865afa158015610639573d6000803e3d6000fd5b505050506040513d601f19601f8201168201806040525081019061065d91906124e2565b905060008173ffffffffffffffffffffffffffffffffffffffff1663dbc837c56040518163ffffffff1660e01b8152600401602060405180830381865afa1580156106ac573d6000803e3d6000fd5b505050506040513d601f19601f820116820180604052508101906106d0919061254d565b90508073ffffffffffffffffffffffffffffffffffffffff163373ffffffffffffffffffffffffffffffffffffffff1614610740576040517f08c379a0000000000000000000000000000000000000000000000000000000008152600401610737906125ec565b60405180910390fd5b60008060009054906101000a900473ffffffffffffffffffffffffffffffffffffffff1673ffffffffffffffffffffffffffffffffffffffff1663358177736040518060400160405280600681526020017f706f6c69637900000000000000000000000000000000000000000000000000008152506040518263ffffffff1660e01b81526004016107d191906124ab565b602060405180830381865afa1580156107ee573d6000803e3d6000fd5b505050506040513d601f19601f8201168201806040525081019061081291906124e2565b905060008173ffffffffffffffffffffffffffffffffffffffff16635eb7d95a866040518263ffffffff1660e01b815260040161084f919061261b565b602060405180830381865afa15801561086c573d6000803e3d6000fd5b505050506040513d601f19601f82011682018060405250810190610890919061264b565b905060006001600260008873ffffffffffffffffffffffffffffffffffffffff1673ffffffffffffffffffffffffffffffffffffffff168152602001908152602001600020546108e091906126df565b905060011515600182815481106108fa576108f9612713565b5b906000526020600020906004020160030160009054906101000a900460ff1615151461095b576040517f08c379a00000000000000000000000000000000000000000000000000000000081526004016109529061278e565b60405180910390fd5b600015156001828154811061097357610972612713565b5b906000526020600020906004020160030160019054906101000a900460ff161515146109d4576040517f08c379a00000000000000000000000000000000000000000000000000000000081526004016109cb906127fa565b60405180910390fd5b60018082815481106109e9576109e8612713565b5b906000526020600020906004020160030160016101000a81548160ff021916908315150217905550600060018281548110610a2757610a26612713565b5b9060005260206000209060040201600201549050610a4487611b1b565b8373ffffffffffffffffffffffffffffffffffffffff166350802e3f88836040518363ffffffff1660e01b8152600401610a7f929190612829565b600060405180830381600087803b158015610a9957600080fd5b505af1158015610aad573d6000803e3d6000fd5b505050507f9399804fcdc49f981ddb364feccbc1cf0b8430761121f70e86695ff5abdb742f8784604051610ae2929190612687565b60405180910390a150505050505050565b60008060009054906101000a900473ffffffffffffffffffffffffffffffffffffffff1673ffffffffffffffffffffffffffffffffffffffff1663358177736040518060400160405280600681526020017f706f6c69637900000000000000000000000000000000000000000000000000008152506040518263ffffffff1660e01b8152600401610b8491906124ab565b602060405180830381865afa158015610ba1573d6000803e3d6000fd5b505050506040513d601f19601f82011682018060405250810190610bc591906124e2565b905060008173ffffffffffffffffffffffffffffffffffffffff166345f23e29336040518263ffffffff1660e01b8152600401610c02919061261b565b61010060405180830381865afa158015610c20573d6000803e3d6000fd5b505050506040513d601f19601f82011682018060405250810190610c44919061299c565b90508060a001513414610c8c576040517f08c379a0000000000000000000000000000000000000000000000000000000008152600401610c8390612a3c565b60405180910390fd5b60008511610ccf576040517f08c379a0000000000000000000000000000000000000000000000000000000008152600401610cc690612ace565b60405180910390fd5b8060800151851115610d16576040517f08c379a0000000000000000000000000000000000000000000000000000000008152600401610d0d90612b60565b60405180910390fd5b8173ffffffffffffffffffffffffffffffffffffffff1663b6bbad12336040518263ffffffff1660e01b8152600401610d4f919061261b565b602060405180830381865afa158015610d6c573d6000803e3d6000fd5b505050506040513d601f19601f82011682018060405250810190610d909190612bac565b610dcf576040517f08c379a0000000000000000000000000000000000000000000000000000000008152600401610dc690612c4b565b60405180910390fd5b8173ffffffffffffffffffffffffffffffffffffffff16637fcdf27a336040518263ffffffff1660e01b8152600401610e08919061261b565b602060405180830381865afa158015610e25573d6000803e3d6000fd5b505050506040513d601f19601f82011682018060405250810190610e499190612bac565b610e88576040517f08c379a0000000000000000000000000000000000000000000000000000000008152600401610e7f90612cb7565b60405180910390fd5b8173ffffffffffffffffffffffffffffffffffffffff166319ae3c6a336040518263ffffffff1660e01b8152600401610ec1919061261b565b602060405180830381865afa158015610ede573d6000803e3d6000fd5b505050506040513d601f19601f82011682018060405250810190610f029190612bac565b610f41576040517f08c379a0000000000000000000000000000000000000000000000000000000008152600401610f3890612d49565b60405180910390fd5b8173ffffffffffffffffffffffffffffffffffffffff16630f78984b336040518263ffffffff1660e01b8152600401610f7a919061261b565b602060405180830381865afa158015610f97573d6000803e3d6000fd5b505050506040513d601f19601f82011682018060405250810190610fbb9190612bac565b610ffa576040517f08c379a0000000000000000000000000000000000000000000000000000000008152600401610ff190612db5565b60405180910390fd5b6000600260003373ffffffffffffffffffffffffffffffffffffffff1673ffffffffffffffffffffffffffffffffffffffff168152602001908152602001600020541461107c576040517f08c379a000000000000000000000000000000000000000000000000000000000815260040161107390612e47565b60405180910390fd5b60006040518060a001604052803373ffffffffffffffffffffffffffffffffffffffff16815260200186868080601f016020809104026020016040519081016040528093929190818152602001838380828437600081840152601f19601f820116905080830192505050505050508152602001878152602001600015158152602001600015158152509050600181908060018154018082558091505060019003906000526020600020906004020160009091909190915060008201518160000160006101000a81548173ffffffffffffffffffffffffffffffffffffffff021916908373ffffffffffffffffffffffffffffffffffffffff160217905550602082015181600101908161118f9190613073565b506040820151816002015560608201518160030160006101000a81548160ff02191690831515021790555060808201518160030160016101000a81548160ff0219169083151502179055505050600180549050600260003373ffffffffffffffffffffffffffffffffffffffff1673ffffffffffffffffffffffffffffffffffffffff168152602001908152602001600020819055508273ffffffffffffffffffffffffffffffffffffffff166108fc349081150290604051600060405180830381858888f1935050505015801561126b573d6000803e3d6000fd5b507f4d6145cb353792ba8c39c4edf435ce7b49aaf9613bca0161e8e0ee00f8270a0f3383600001516040516112a1929190612687565b60405180910390a1505050505050565b6112b9611eaa565b816000600260008373ffffffffffffffffffffffffffffffffffffffff1673ffffffffffffffffffffffffffffffffffffffff16815260200190815260200160002054905060008103611341576040517f08c379a000000000000000000000000000000000000000000000000000000000815260040161133890612452565b60405180910390fd5b600180600260008773ffffffffffffffffffffffffffffffffffffffff1673ffffffffffffffffffffffffffffffffffffffff1681526020019081526020016000205461138e91906126df565b8154811061139f5761139e612713565b5b90600052602060002090600402016040518060a00160405290816000820160009054906101000a900473ffffffffffffffffffffffffffffffffffffffff1673ffffffffffffffffffffffffffffffffffffffff1673ffffffffffffffffffffffffffffffffffffffff16815260200160018201805461141e90612e96565b80601f016020809104026020016040519081016040528092919081815260200182805461144a90612e96565b80156114975780601f1061146c57610100808354040283529160200191611497565b820191906000526020600020905b81548152906001019060200180831161147a57829003601f168201915b50505050508152602001600282015481526020016003820160009054906101000a900460ff161515151581526020016003820160019054906101000a900460ff16151515158152505092505050919050565b600080600260008473ffffffffffffffffffffffffffffffffffffffff1673ffffffffffffffffffffffffffffffffffffffff1681526020019081526020016000205414159050919050565b806000600260008373ffffffffffffffffffffffffffffffffffffffff1673ffffffffffffffffffffffffffffffffffffffff168152602001908152602001600020549050600081036115bd576040517f08c379a00000000000000000000000000000000000000000000000000000000081526004016115b490612452565b60405180910390fd5b60008060009054906101000a900473ffffffffffffffffffffffffffffffffffffffff1673ffffffffffffffffffffffffffffffffffffffff1663358177736040518060400160405280600681526020017f706f6c69637900000000000000000000000000000000000000000000000000008152506040518263ffffffff1660e01b815260040161164e91906124ab565b602060405180830381865afa15801561166b573d6000803e3d6000fd5b505050506040513d601f19601f8201168201806040525081019061168f91906124e2565b905060008173ffffffffffffffffffffffffffffffffffffffff1663dbc837c56040518163ffffffff1660e01b8152600401602060405180830381865afa1580156116de573d6000803e3d6000fd5b505050506040513d601f19601f82011682018060405250810190611702919061254d565b90508073ffffffffffffffffffffffffffffffffffffffff163373ffffffffffffffffffffffffffffffffffffffff1614611772576040517f08c379a0000000000000000000000000000000000000000000000000000000008152600401611769906125ec565b60405180910390fd5b60008060009054906101000a900473ffffffffffffffffffffffffffffffffffffffff1673ffffffffffffffffffffffffffffffffffffffff1663358177736040518060400160405280600681526020017f706f6c69637900000000000000000000000000000000000000000000000000008152506040518263ffffffff1660e01b815260040161180391906124ab565b602060405180830381865afa158015611820573d6000803e3d6000fd5b505050506040513d601f19601f8201168201806040525081019061184491906124e2565b905060006001600260008973ffffffffffffffffffffffffffffffffffffffff1673ffffffffffffffffffffffffffffffffffffffff1681526020019081526020016000205461189491906126df565b905060018082815481106118ab576118aa612713565b5b906000526020600020906004020160030160006101000a81548160ff02191690831515021790555060008273ffffffffffffffffffffffffffffffffffffffff16635eb7d95a896040518263ffffffff1660e01b815260040161190e919061261b565b602060405180830381865afa15801561192b573d6000803e3d6000fd5b505050506040513d601f19601f8201168201806040525081019061194f919061264b565b90507fb71dc9ae42731f50f6d57159752c8267d98b3d195b2dd32a360b4d44e50781378882604051611982929190612687565b60405180910390a15050505050505050565b60606001805480602002602001604051908101604052809291908181526020016000905b82821015611b1257838290600052602060002090600402016040518060a00160405290816000820160009054906101000a900473ffffffffffffffffffffffffffffffffffffffff1673ffffffffffffffffffffffffffffffffffffffff1673ffffffffffffffffffffffffffffffffffffffff168152602001600182018054611a4190612e96565b80601f0160208091040260200160405190810160405280929190818152602001828054611a6d90612e96565b8015611aba5780601f10611a8f57610100808354040283529160200191611aba565b820191906000526020600020905b815481529060010190602001808311611a9d57829003601f168201915b50505050508152602001600282015481526020016003820160009054906101000a900460ff161515151581526020016003820160019054906101000a900460ff161515151581525050815260200190600101906119b8565b50505050905090565b806000600260008373ffffffffffffffffffffffffffffffffffffffff1673ffffffffffffffffffffffffffffffffffffffff16815260200190815260200160002054905060008103611ba3576040517f08c379a0000000000000000000000000000000000000000000000000000000008152600401611b9a90612452565b60405180910390fd5b6000600260008573ffffffffffffffffffffffffffffffffffffffff1673ffffffffffffffffffffffffffffffffffffffff1681526020019081526020016000205490506000600260008673ffffffffffffffffffffffffffffffffffffffff1673ffffffffffffffffffffffffffffffffffffffff168152602001908152602001600020819055508060018054905014611e125780600260006001808080549050611c4f91906126df565b81548110611c6057611c5f612713565b5b906000526020600020906004020160000160009054906101000a900473ffffffffffffffffffffffffffffffffffffffff1673ffffffffffffffffffffffffffffffffffffffff1673ffffffffffffffffffffffffffffffffffffffff168152602001908152602001600020819055506001808080549050611ce291906126df565b81548110611cf357611cf2612713565b5b906000526020600020906004020160018083611d0f91906126df565b81548110611d2057611d1f612713565b5b90600052602060002090600402016000820160009054906101000a900473ffffffffffffffffffffffffffffffffffffffff168160000160006101000a81548173ffffffffffffffffffffffffffffffffffffffff021916908373ffffffffffffffffffffffffffffffffffffffff16021790555060018201816001019081611da9919061315b565b50600282015481600201556003820160009054906101000a900460ff168160030160006101000a81548160ff0219169083151502179055506003820160019054906101000a900460ff168160030160016101000a81548160ff0219169083151502179055509050505b6001805480611e2457611e23613243565b5b6001900381819060005260206000209060040201600080820160006101000a81549073ffffffffffffffffffffffffffffffffffffffff0219169055600182016000611e709190611ef3565b60028201600090556003820160006101000a81549060ff02191690556003820160016101000a81549060ff02191690555050905550505050565b6040518060a00160405280600073ffffffffffffffffffffffffffffffffffffffff16815260200160608152602001600081526020016000151581526020016000151581525090565b508054611eff90612e96565b6000825580601f10611f115750611f30565b601f016020900490600052602060002090810190611f2f9190611f33565b5b50565b5b80821115611f4c576000816000905550600101611f34565b5090565b6000604051905090565b600080fd5b600080fd5b600073ffffffffffffffffffffffffffffffffffffffff82169050919050565b6000611f8f82611f64565b9050919050565b611f9f81611f84565b8114611faa57600080fd5b50565b600081359050611fbc81611f96565b92915050565b600060208284031215611fd857611fd7611f5a565b5b6000611fe684828501611fad565b91505092915050565b6000819050919050565b61200281611fef565b811461200d57600080fd5b50565b60008135905061201f81611ff9565b92915050565b600080fd5b600080fd5b600080fd5b60008083601f84011261204a57612049612025565b5b8235905067ffffffffffffffff8111156120675761206661202a565b5b6020830191508360018202830111156120835761208261202f565b5b9250929050565b6000806000604084860312156120a3576120a2611f5a565b5b60006120b186828701612010565b935050602084013567ffffffffffffffff8111156120d2576120d1611f5f565b5b6120de86828701612034565b92509250509250925092565b6120f381611f84565b82525050565b600081519050919050565b600082825260208201905092915050565b60005b83811015612133578082015181840152602081019050612118565b60008484015250505050565b6000601f19601f8301169050919050565b600061215b826120f9565b6121658185612104565b9350612175818560208601612115565b61217e8161213f565b840191505092915050565b61219281611fef565b82525050565b60008115159050919050565b6121ad81612198565b82525050565b600060a0830160008301516121cb60008601826120ea565b50602083015184820360208601526121e38282612150565b91505060408301516121f86040860182612189565b50606083015161220b60608601826121a4565b50608083015161221e60808601826121a4565b508091505092915050565b6000602082019050818103600083015261224381846121b3565b905092915050565b61225481612198565b82525050565b600060208201905061226f600083018461224b565b92915050565b600081519050919050565b600082825260208201905092915050565b6000819050602082019050919050565b600060a0830160008301516122b960008601826120ea565b50602083015184820360208601526122d18282612150565b91505060408301516122e66040860182612189565b5060608301516122f960608601826121a4565b50608083015161230c60808601826121a4565b508091505092915050565b600061232383836122a1565b905092915050565b6000602082019050919050565b600061234382612275565b61234d8185612280565b93508360208202850161235f85612291565b8060005b8581101561239b578484038952815161237c8582612317565b94506123878361232b565b925060208a01995050600181019050612363565b50829750879550505050505092915050565b600060208201905081810360008301526123c78184612338565b905092915050565b600082825260208201905092915050565b7f506f6c69637920686f6c64657220646f65736e2774206861766520616e79206360008201527f6c61696d206170706c69636174696f6e73000000000000000000000000000000602082015250565b600061243c6031836123cf565b9150612447826123e0565b604082019050919050565b6000602082019050818103600083015261246b8161242f565b9050919050565b600061247d826120f9565b61248781856123cf565b9350612497818560208601612115565b6124a08161213f565b840191505092915050565b600060208201905081810360008301526124c58184612472565b905092915050565b6000815190506124dc81611f96565b92915050565b6000602082840312156124f8576124f7611f5a565b5b6000612506848285016124cd565b91505092915050565b600061251a82611f64565b9050919050565b61252a8161250f565b811461253557600080fd5b50565b60008151905061254781612521565b92915050565b60006020828403121561256357612562611f5a565b5b600061257184828501612538565b91505092915050565b7f4f6e6c792074686520696e73757265722063616e2070726f6365737320636c6160008201527f696d730000000000000000000000000000000000000000000000000000000000602082015250565b60006125d66023836123cf565b91506125e18261257a565b604082019050919050565b60006020820190508181036000830152612605816125c9565b9050919050565b61261581611f84565b82525050565b6000602082019050612630600083018461260c565b92915050565b60008151905061264581611ff9565b92915050565b60006020828403121561266157612660611f5a565b5b600061266f84828501612636565b91505092915050565b61268181611fef565b82525050565b600060408201905061269c600083018561260c565b6126a96020830184612678565b9392505050565b7f4e487b7100000000000000000000000000000000000000000000000000000000600052601160045260246000fd5b60006126ea82611fef565b91506126f583611fef565b925082820390508181111561270d5761270c6126b0565b5b92915050565b7f4e487b7100000000000000000000000000000000000000000000000000000000600052603260045260246000fd5b7f436c61696d20686173206e6f74206265656e2076657269666965640000000000600082015250565b6000612778601b836123cf565b915061278382612742565b602082019050919050565b600060208201905081810360008301526127a78161276b565b9050919050565b7f436c61696d2068617320616c7265616479206265656e20706169640000000000600082015250565b60006127e4601b836123cf565b91506127ef826127ae565b602082019050919050565b60006020820190508181036000830152612813816127d7565b9050919050565b6128238161250f565b82525050565b600060408201905061283e600083018561281a565b61284b6020830184612678565b9392505050565b600080fd5b7f4e487b7100000000000000000000000000000000000000000000000000000000600052604160045260246000fd5b61288f8261213f565b810181811067ffffffffffffffff821117156128ae576128ad612857565b5b80604052505050565b60006128c1611f50565b90506128cd8282612886565b919050565b600061010082840312156128e9576128e8612852565b5b6128f46101006128b7565b9050600061290484828501612636565b600083015250602061291884828501612636565b602083015250604061292c84828501612636565b604083015250606061294084828501612636565b606083015250608061295484828501612636565b60808301525060a061296884828501612636565b60a08301525060c061297c84828501612636565b60c08301525060e061299084828501612636565b60e08301525092915050565b600061010082840312156129b3576129b2611f5a565b5b60006129c1848285016128d2565b91505092915050565b7f506f6c696379686f6c6465722073686f756c642070617920646564756374696260008201527f6c6520666f72206170706c79696e670000000000000000000000000000000000602082015250565b6000612a26602f836123cf565b9150612a31826129ca565b604082019050919050565b60006020820190508181036000830152612a5581612a19565b9050919050565b7f436c61696d20616d6f756e74206d75737420626520677265617465722074686160008201527f6e207a65726f0000000000000000000000000000000000000000000000000000602082015250565b6000612ab86026836123cf565b9150612ac382612a5c565b604082019050919050565b60006020820190508181036000830152612ae781612aab565b9050919050565b7f436c61696d20616d6f756e74206d757374206265206c657373207468616e206f60008201527f7220657175616c20746f20706f6c696379206c696d6974000000000000000000602082015250565b6000612b4a6037836123cf565b9150612b5582612aee565b604082019050919050565b60006020820190508181036000830152612b7981612b3d565b9050919050565b612b8981612198565b8114612b9457600080fd5b50565b600081519050612ba681612b80565b92915050565b600060208284031215612bc257612bc1611f5a565b5b6000612bd084828501612b97565b91505092915050565b7f4f6e6c7920706f6c69637920686f6c646572732063616e207375626d6974206360008201527f6c61696d73000000000000000000000000000000000000000000000000000000602082015250565b6000612c356025836123cf565b9150612c4082612bd9565b604082019050919050565b60006020820190508181036000830152612c6481612c28565b9050919050565b7f506f6c6963792069736e27742061637469766174656400000000000000000000600082015250565b6000612ca16016836123cf565b9150612cac82612c6b565b602082019050919050565b60006020820190508181036000830152612cd081612c94565b9050919050565b7f50796d656e7420646561646c696e6520686173206265656e206d69737365642e60008201527f2054686520706f6c69637920697320696e616374697665000000000000000000602082015250565b6000612d336037836123cf565b9150612d3e82612cd7565b604082019050919050565b60006020820190508181036000830152612d6281612d26565b9050919050565b7f506f6c6963792065787069726564000000000000000000000000000000000000600082015250565b6000612d9f600e836123cf565b9150612daa82612d69565b602082019050919050565b60006020820190508181036000830152612dce81612d92565b9050919050565b7f506f6c69637920686f6c6465722068617320616c7265616479206170706c696560008201527f6420666f7220636c61696d000000000000000000000000000000000000000000602082015250565b6000612e31602b836123cf565b9150612e3c82612dd5565b604082019050919050565b60006020820190508181036000830152612e6081612e24565b9050919050565b7f4e487b7100000000000000000000000000000000000000000000000000000000600052602260045260246000fd5b60006002820490506001821680612eae57607f821691505b602082108103612ec157612ec0612e67565b5b50919050565b60008190508160005260206000209050919050565b60006020601f8301049050919050565b600082821b905092915050565b600060088302612f297fffffffffffffffffffffffffffffffffffffffffffffffffffffffffffffffff82612eec565b612f338683612eec565b95508019841693508086168417925050509392505050565b6000819050919050565b6000612f70612f6b612f6684611fef565b612f4b565b611fef565b9050919050565b6000819050919050565b612f8a83612f55565b612f9e612f9682612f77565b848454612ef9565b825550505050565b600090565b612fb3612fa6565b612fbe818484612f81565b505050565b5b81811015612fe257612fd7600082612fab565b600181019050612fc4565b5050565b601f82111561302757612ff881612ec7565b61300184612edc565b81016020851015613010578190505b61302461301c85612edc565b830182612fc3565b50505b505050565b600082821c905092915050565b600061304a6000198460080261302c565b1980831691505092915050565b60006130638383613039565b9150826002028217905092915050565b61307c826120f9565b67ffffffffffffffff81111561309557613094612857565b5b61309f8254612e96565b6130aa828285612fe6565b600060209050601f8311600181146130dd57600084156130cb578287015190505b6130d58582613057565b86555061313d565b601f1984166130eb86612ec7565b60005b82811015613113578489015182556001820191506020850194506020810190506130ee565b86831015613130578489015161312c601f891682613039565b8355505b6001600288020188555050505b505050505050565b60008154905061315481612e96565b9050919050565b818103613169575050613241565b61317282613145565b67ffffffffffffffff81111561318b5761318a612857565b5b6131958254612e96565b6131a0828285612fe6565b6000601f8311600181146131cf57600084156131bd578287015490505b6131c78582613057565b86555061323a565b601f1984166131dd87612ec7565b96506131e886612ec7565b60005b82811015613210578489015482556001820191506001850194506020810190506131eb565b8683101561322d5784890154613229601f891682613039565b8355505b6001600288020188555050505b5050505050505b565b7f4e487b7100000000000000000000000000000000000000000000000000000000600052603160045260246000fdfea26469706673582212204d7821a918717a609fdf952883fa8291bf5819635e22e48a3283696966398df464736f6c63430008120033",
  "linkReferences": {},
  "deployedLinkReferences": {}
}