{
  "_format": "hh-sol-artifact-1",
  "contractName": "ClaimApplication",
  "sourceName": "contracts/ClaimApplication.sol",
  "abi": [
    {
      "inputs": [
        {
          "internalType": "address",
          "name": "_contractregistryAddress",
          "type": "address"
        }
      ],
      "stateMutability": "nonpayable",
      "type": "constructor"
    },
    {
      "anonymous": false,
      "inputs": [
        {
          "indexed": false,
          "internalType": "address",
          "name": "_policyHolder",
          "type": "address"
        },
        {
          "indexed": false,
          "internalType": "uint256",
          "name": "_policyNumber",
          "type": "uint256"
        }
      ],
      "name": "ClaimApplicationApproved",
      "type": "event"
    },
    {
      "anonymous": false,
      "inputs": [
        {
          "indexed": false,
          "internalType": "address",
          "name": "_policyHolder",
          "type": "address"
        },
        {
          "indexed": false,
          "internalType": "uint256",
          "name": "_policyNumber",
          "type": "uint256"
        }
      ],
      "name": "ClaimApplicationRejected",
      "type": "event"
    },
    {
      "anonymous": false,
      "inputs": [
        {
          "indexed": false,
          "internalType": "address",
          "name": "_policyHolder",
          "type": "address"
        },
        {
          "indexed": false,
          "internalType": "uint256",
          "name": "_policyNumber",
          "type": "uint256"
        }
      ],
      "name": "ClaimApplicationSubmitted",
      "type": "event"
    },
    {
      "anonymous": false,
      "inputs": [
        {
          "indexed": false,
          "internalType": "address",
          "name": "_policyHolder",
          "type": "address"
        },
        {
          "indexed": false,
          "internalType": "uint256",
          "name": "_policyNumber",
          "type": "uint256"
        }
      ],
      "name": "ClaimApplicationVerified",
      "type": "event"
    },
    {
      "inputs": [
        {
          "internalType": "address",
          "name": "_policyHolder",
          "type": "address"
        }
      ],
      "name": "getClaim",
      "outputs": [
        {
          "components": [
            {
              "internalType": "address",
              "name": "policyHolder",
              "type": "address"
            },
            {
              "internalType": "uint256",
              "name": "amount",
              "type": "uint256"
            },
            {
              "internalType": "bool",
              "name": "verified",
              "type": "bool"
            },
            {
              "internalType": "bool",
              "name": "paid",
              "type": "bool"
            }
          ],
          "internalType": "struct ClaimApplication.Claim",
          "name": "",
          "type": "tuple"
        }
      ],
      "stateMutability": "view",
      "type": "function"
    },
    {
      "inputs": [],
      "name": "getClaims",
      "outputs": [
        {
          "components": [
            {
              "internalType": "address",
              "name": "policyHolder",
              "type": "address"
            },
            {
              "internalType": "uint256",
              "name": "amount",
              "type": "uint256"
            },
            {
              "internalType": "bool",
              "name": "verified",
              "type": "bool"
            },
            {
              "internalType": "bool",
              "name": "paid",
              "type": "bool"
            }
          ],
          "internalType": "struct ClaimApplication.Claim[]",
          "name": "",
          "type": "tuple[]"
        }
      ],
      "stateMutability": "view",
      "type": "function"
    },
    {
      "inputs": [],
      "name": "hasClaimApplication",
      "outputs": [
        {
          "internalType": "bool",
          "name": "",
          "type": "bool"
        }
      ],
      "stateMutability": "view",
      "type": "function"
    },
    {
      "inputs": [
        {
          "internalType": "address",
          "name": "_policyHolder",
          "type": "address"
        }
      ],
      "name": "payClaim",
      "outputs": [],
      "stateMutability": "nonpayable",
      "type": "function"
    },
    {
      "inputs": [
        {
          "internalType": "address",
          "name": "_policyHolder",
          "type": "address"
        }
      ],
      "name": "rejectClaim",
      "outputs": [],
      "stateMutability": "nonpayable",
      "type": "function"
    },
    {
      "inputs": [
        {
          "internalType": "uint256",
          "name": "_ClaimAmount",
          "type": "uint256"
        }
      ],
      "name": "submitClaim",
      "outputs": [],
      "stateMutability": "payable",
      "type": "function"
    },
    {
      "inputs": [
        {
          "internalType": "address",
          "name": "_policyHolder",
          "type": "address"
        }
      ],
      "name": "verifyClaim",
      "outputs": [],
      "stateMutability": "nonpayable",
      "type": "function"
    }
  ],
  "bytecode": "0x60806040523480156200001157600080fd5b5060405162002c9038038062002c908339818101604052810190620000379190620000e8565b806000806101000a81548173ffffffffffffffffffffffffffffffffffffffff021916908373ffffffffffffffffffffffffffffffffffffffff160217905550506200011a565b600080fd5b600073ffffffffffffffffffffffffffffffffffffffff82169050919050565b6000620000b08262000083565b9050919050565b620000c281620000a3565b8114620000ce57600080fd5b50565b600081519050620000e281620000b7565b92915050565b6000602082840312156200010157620001006200007e565b5b60006200011184828501620000d1565b91505092915050565b612b66806200012a6000396000f3fe6080604052600436106100705760003560e01c80636aa14a961161004e5780636aa14a9614610104578063a80d520c14610120578063c52822f814610149578063c52fae041461017457610070565b80631f30ed7a1461007557806336b9418a1461009e5780634cd3723a146100c7575b600080fd5b34801561008157600080fd5b5061009c60048036038101906100979190611d9a565b61019f565b005b3480156100aa57600080fd5b506100c560048036038101906100c09190611d9a565b610579565b005b3480156100d357600080fd5b506100ee60048036038101906100e99190611d9a565b610ae1565b6040516100fb9190611e5f565b60405180910390f35b61011e60048036038101906101199190611ea6565b610c87565b005b34801561012c57600080fd5b5061014760048036038101906101429190611d9a565b6113e3565b005b34801561015557600080fd5b5061015e611842565b60405161016b9190611fd7565b60405180910390f35b34801561018057600080fd5b50610189611937565b6040516101969190612008565b60405180910390f35b806000600260008373ffffffffffffffffffffffffffffffffffffffff1673ffffffffffffffffffffffffffffffffffffffff16815260200190815260200160002054905060008103610227576040517f08c379a000000000000000000000000000000000000000000000000000000000815260040161021e906120a6565b60405180910390fd5b60008060009054906101000a900473ffffffffffffffffffffffffffffffffffffffff1673ffffffffffffffffffffffffffffffffffffffff1663358177736040518060400160405280600681526020017f706f6c69637900000000000000000000000000000000000000000000000000008152506040518263ffffffff1660e01b81526004016102b89190612145565b602060405180830381865afa1580156102d5573d6000803e3d6000fd5b505050506040513d601f19601f820116820180604052508101906102f9919061217c565b905060008173ffffffffffffffffffffffffffffffffffffffff1663dbc837c56040518163ffffffff1660e01b8152600401602060405180830381865afa158015610348573d6000803e3d6000fd5b505050506040513d601f19601f8201168201806040525081019061036c91906121e7565b90508073ffffffffffffffffffffffffffffffffffffffff163373ffffffffffffffffffffffffffffffffffffffff16146103dc576040517f08c379a00000000000000000000000000000000000000000000000000000000081526004016103d390612286565b60405180910390fd5b60008060009054906101000a900473ffffffffffffffffffffffffffffffffffffffff1673ffffffffffffffffffffffffffffffffffffffff1663358177736040518060400160405280600681526020017f706f6c69637900000000000000000000000000000000000000000000000000008152506040518263ffffffff1660e01b815260040161046d9190612145565b602060405180830381865afa15801561048a573d6000803e3d6000fd5b505050506040513d601f19601f820116820180604052508101906104ae919061217c565b90506104b986611981565b60008173ffffffffffffffffffffffffffffffffffffffff16635eb7d95a886040518263ffffffff1660e01b81526004016104f491906122b5565b602060405180830381865afa158015610511573d6000803e3d6000fd5b505050506040513d601f19601f8201168201806040525081019061053591906122e5565b90507f34cf79016e20b1e5bd3a95ecca27b31ff74cec27128a1b648c838f5c39477a1d8782604051610568929190612321565b60405180910390a150505050505050565b60008060009054906101000a900473ffffffffffffffffffffffffffffffffffffffff1673ffffffffffffffffffffffffffffffffffffffff1663358177736040518060400160405280600681526020017f706f6c69637900000000000000000000000000000000000000000000000000008152506040518263ffffffff1660e01b815260040161060a9190612145565b602060405180830381865afa158015610627573d6000803e3d6000fd5b505050506040513d601f19601f8201168201806040525081019061064b919061217c565b905060008173ffffffffffffffffffffffffffffffffffffffff1663dbc837c56040518163ffffffff1660e01b8152600401602060405180830381865afa15801561069a573d6000803e3d6000fd5b505050506040513d601f19601f820116820180604052508101906106be91906121e7565b90508073ffffffffffffffffffffffffffffffffffffffff163373ffffffffffffffffffffffffffffffffffffffff161461072e576040517f08c379a000000000000000000000000000000000000000000000000000000000815260040161072590612286565b60405180910390fd5b60008060009054906101000a900473ffffffffffffffffffffffffffffffffffffffff1673ffffffffffffffffffffffffffffffffffffffff1663358177736040518060400160405280600681526020017f706f6c69637900000000000000000000000000000000000000000000000000008152506040518263ffffffff1660e01b81526004016107bf9190612145565b602060405180830381865afa1580156107dc573d6000803e3d6000fd5b505050506040513d601f19601f82011682018060405250810190610800919061217c565b905060008173ffffffffffffffffffffffffffffffffffffffff16635eb7d95a866040518263ffffffff1660e01b815260040161083d91906122b5565b602060405180830381865afa15801561085a573d6000803e3d6000fd5b505050506040513d601f19601f8201168201806040525081019061087e91906122e5565b905060006001600260008873ffffffffffffffffffffffffffffffffffffffff1673ffffffffffffffffffffffffffffffffffffffff168152602001908152602001600020546108ce9190612379565b905060011515600182815481106108e8576108e76123ad565b5b906000526020600020906003020160020160009054906101000a900460ff16151514610949576040517f08c379a000000000000000000000000000000000000000000000000000000000815260040161094090612428565b60405180910390fd5b6000151560018281548110610961576109606123ad565b5b906000526020600020906003020160020160019054906101000a900460ff161515146109c2576040517f08c379a00000000000000000000000000000000000000000000000000000000081526004016109b990612494565b60405180910390fd5b60018082815481106109d7576109d66123ad565b5b906000526020600020906003020160020160016101000a81548160ff021916908315150217905550600060018281548110610a1557610a146123ad565b5b9060005260206000209060030201600101549050610a3287611981565b8373ffffffffffffffffffffffffffffffffffffffff166350802e3f88836040518363ffffffff1660e01b8152600401610a6d9291906124c3565b600060405180830381600087803b158015610a8757600080fd5b505af1158015610a9b573d6000803e3d6000fd5b505050507f9399804fcdc49f981ddb364feccbc1cf0b8430761121f70e86695ff5abdb742f8784604051610ad0929190612321565b60405180910390a150505050505050565b610ae9611ceb565b816000600260008373ffffffffffffffffffffffffffffffffffffffff1673ffffffffffffffffffffffffffffffffffffffff16815260200190815260200160002054905060008103610b71576040517f08c379a0000000000000000000000000000000000000000000000000000000008152600401610b68906120a6565b60405180910390fd5b600180600260008773ffffffffffffffffffffffffffffffffffffffff1673ffffffffffffffffffffffffffffffffffffffff16815260200190815260200160002054610bbe9190612379565b81548110610bcf57610bce6123ad565b5b90600052602060002090600302016040518060800160405290816000820160009054906101000a900473ffffffffffffffffffffffffffffffffffffffff1673ffffffffffffffffffffffffffffffffffffffff1673ffffffffffffffffffffffffffffffffffffffff168152602001600182015481526020016002820160009054906101000a900460ff161515151581526020016002820160019054906101000a900460ff16151515158152505092505050919050565b60008060009054906101000a900473ffffffffffffffffffffffffffffffffffffffff1673ffffffffffffffffffffffffffffffffffffffff1663358177736040518060400160405280600681526020017f706f6c69637900000000000000000000000000000000000000000000000000008152506040518263ffffffff1660e01b8152600401610d189190612145565b602060405180830381865afa158015610d35573d6000803e3d6000fd5b505050506040513d601f19601f82011682018060405250810190610d59919061217c565b905060008173ffffffffffffffffffffffffffffffffffffffff166345f23e29336040518263ffffffff1660e01b8152600401610d9691906122b5565b61010060405180830381865afa158015610db4573d6000803e3d6000fd5b505050506040513d601f19601f82011682018060405250810190610dd89190612636565b90508060a001513414610e20576040517f08c379a0000000000000000000000000000000000000000000000000000000008152600401610e17906126d6565b60405180910390fd5b60008311610e63576040517f08c379a0000000000000000000000000000000000000000000000000000000008152600401610e5a90612768565b60405180910390fd5b8060800151831115610eaa576040517f08c379a0000000000000000000000000000000000000000000000000000000008152600401610ea1906127fa565b60405180910390fd5b8173ffffffffffffffffffffffffffffffffffffffff1663b6bbad12336040518263ffffffff1660e01b8152600401610ee391906122b5565b602060405180830381865afa158015610f00573d6000803e3d6000fd5b505050506040513d601f19601f82011682018060405250810190610f249190612846565b610f63576040517f08c379a0000000000000000000000000000000000000000000000000000000008152600401610f5a906128e5565b60405180910390fd5b8173ffffffffffffffffffffffffffffffffffffffff16637fcdf27a336040518263ffffffff1660e01b8152600401610f9c91906122b5565b602060405180830381865afa158015610fb9573d6000803e3d6000fd5b505050506040513d601f19601f82011682018060405250810190610fdd9190612846565b61101c576040517f08c379a000000000000000000000000000000000000000000000000000000000815260040161101390612951565b60405180910390fd5b8173ffffffffffffffffffffffffffffffffffffffff166319ae3c6a336040518263ffffffff1660e01b815260040161105591906122b5565b602060405180830381865afa158015611072573d6000803e3d6000fd5b505050506040513d601f19601f820116820180604052508101906110969190612846565b6110d5576040517f08c379a00000000000000000000000000000000000000000000000000000000081526004016110cc906129e3565b60405180910390fd5b8173ffffffffffffffffffffffffffffffffffffffff16630f78984b336040518263ffffffff1660e01b815260040161110e91906122b5565b602060405180830381865afa15801561112b573d6000803e3d6000fd5b505050506040513d601f19601f8201168201806040525081019061114f9190612846565b61118e576040517f08c379a000000000000000000000000000000000000000000000000000000000815260040161118590612a4f565b60405180910390fd5b6000600260003373ffffffffffffffffffffffffffffffffffffffff1673ffffffffffffffffffffffffffffffffffffffff1681526020019081526020016000205414611210576040517f08c379a000000000000000000000000000000000000000000000000000000000815260040161120790612ae1565b60405180910390fd5b600060405180608001604052803373ffffffffffffffffffffffffffffffffffffffff168152602001858152602001600015158152602001600015158152509050600181908060018154018082558091505060019003906000526020600020906003020160009091909190915060008201518160000160006101000a81548173ffffffffffffffffffffffffffffffffffffffff021916908373ffffffffffffffffffffffffffffffffffffffff1602179055506020820151816001015560408201518160020160006101000a81548160ff02191690831515021790555060608201518160020160016101000a81548160ff0219169083151502179055505050600180549050600260003373ffffffffffffffffffffffffffffffffffffffff1673ffffffffffffffffffffffffffffffffffffffff168152602001908152602001600020819055508273ffffffffffffffffffffffffffffffffffffffff166108fc349081150290604051600060405180830381858888f1935050505015801561139f573d6000803e3d6000fd5b507f4d6145cb353792ba8c39c4edf435ce7b49aaf9613bca0161e8e0ee00f8270a0f3383600001516040516113d5929190612321565b60405180910390a150505050565b806000600260008373ffffffffffffffffffffffffffffffffffffffff1673ffffffffffffffffffffffffffffffffffffffff1681526020019081526020016000205490506000810361146b576040517f08c379a0000000000000000000000000000000000000000000000000000000008152600401611462906120a6565b60405180910390fd5b60008060009054906101000a900473ffffffffffffffffffffffffffffffffffffffff1673ffffffffffffffffffffffffffffffffffffffff1663358177736040518060400160405280600681526020017f706f6c69637900000000000000000000000000000000000000000000000000008152506040518263ffffffff1660e01b81526004016114fc9190612145565b602060405180830381865afa158015611519573d6000803e3d6000fd5b505050506040513d601f19601f8201168201806040525081019061153d919061217c565b905060008173ffffffffffffffffffffffffffffffffffffffff1663dbc837c56040518163ffffffff1660e01b8152600401602060405180830381865afa15801561158c573d6000803e3d6000fd5b505050506040513d601f19601f820116820180604052508101906115b091906121e7565b90508073ffffffffffffffffffffffffffffffffffffffff163373ffffffffffffffffffffffffffffffffffffffff1614611620576040517f08c379a000000000000000000000000000000000000000000000000000000000815260040161161790612286565b60405180910390fd5b60008060009054906101000a900473ffffffffffffffffffffffffffffffffffffffff1673ffffffffffffffffffffffffffffffffffffffff1663358177736040518060400160405280600681526020017f706f6c69637900000000000000000000000000000000000000000000000000008152506040518263ffffffff1660e01b81526004016116b19190612145565b602060405180830381865afa1580156116ce573d6000803e3d6000fd5b505050506040513d601f19601f820116820180604052508101906116f2919061217c565b905060006001600260008973ffffffffffffffffffffffffffffffffffffffff1673ffffffffffffffffffffffffffffffffffffffff168152602001908152602001600020546117429190612379565b90506001808281548110611759576117586123ad565b5b906000526020600020906003020160020160006101000a81548160ff02191690831515021790555060008273ffffffffffffffffffffffffffffffffffffffff16635eb7d95a896040518263ffffffff1660e01b81526004016117bc91906122b5565b602060405180830381865afa1580156117d9573d6000803e3d6000fd5b505050506040513d601f19601f820116820180604052508101906117fd91906122e5565b90507fb71dc9ae42731f50f6d57159752c8267d98b3d195b2dd32a360b4d44e50781378882604051611830929190612321565b60405180910390a15050505050505050565b60606001805480602002602001604051908101604052809291908181526020016000905b8282101561192e57838290600052602060002090600302016040518060800160405290816000820160009054906101000a900473ffffffffffffffffffffffffffffffffffffffff1673ffffffffffffffffffffffffffffffffffffffff1673ffffffffffffffffffffffffffffffffffffffff168152602001600182015481526020016002820160009054906101000a900460ff161515151581526020016002820160019054906101000a900460ff16151515158152505081526020019060010190611866565b50505050905090565b600080600260003373ffffffffffffffffffffffffffffffffffffffff1673ffffffffffffffffffffffffffffffffffffffff168152602001908152602001600020541415905090565b806000600260008373ffffffffffffffffffffffffffffffffffffffff1673ffffffffffffffffffffffffffffffffffffffff16815260200190815260200160002054905060008103611a09576040517f08c379a0000000000000000000000000000000000000000000000000000000008152600401611a00906120a6565b60405180910390fd5b6000600260008573ffffffffffffffffffffffffffffffffffffffff1673ffffffffffffffffffffffffffffffffffffffff1681526020019081526020016000205490506000600260008673ffffffffffffffffffffffffffffffffffffffff1673ffffffffffffffffffffffffffffffffffffffff168152602001908152602001600020819055508060018054905014611c635780600260006001808080549050611ab59190612379565b81548110611ac657611ac56123ad565b5b906000526020600020906003020160000160009054906101000a900473ffffffffffffffffffffffffffffffffffffffff1673ffffffffffffffffffffffffffffffffffffffff1673ffffffffffffffffffffffffffffffffffffffff168152602001908152602001600020819055506001808080549050611b489190612379565b81548110611b5957611b586123ad565b5b906000526020600020906003020160018083611b759190612379565b81548110611b8657611b856123ad565b5b90600052602060002090600302016000820160009054906101000a900473ffffffffffffffffffffffffffffffffffffffff168160000160006101000a81548173ffffffffffffffffffffffffffffffffffffffff021916908373ffffffffffffffffffffffffffffffffffffffff160217905550600182015481600101556002820160009054906101000a900460ff168160020160006101000a81548160ff0219169083151502179055506002820160019054906101000a900460ff168160020160016101000a81548160ff0219169083151502179055509050505b6001805480611c7557611c74612b01565b5b6001900381819060005260206000209060030201600080820160006101000a81549073ffffffffffffffffffffffffffffffffffffffff021916905560018201600090556002820160006101000a81549060ff02191690556002820160016101000a81549060ff02191690555050905550505050565b6040518060800160405280600073ffffffffffffffffffffffffffffffffffffffff168152602001600081526020016000151581526020016000151581525090565b6000604051905090565b600080fd5b600073ffffffffffffffffffffffffffffffffffffffff82169050919050565b6000611d6782611d3c565b9050919050565b611d7781611d5c565b8114611d8257600080fd5b50565b600081359050611d9481611d6e565b92915050565b600060208284031215611db057611daf611d37565b5b6000611dbe84828501611d85565b91505092915050565b611dd081611d5c565b82525050565b6000819050919050565b611de981611dd6565b82525050565b60008115159050919050565b611e0481611def565b82525050565b608082016000820151611e206000850182611dc7565b506020820151611e336020850182611de0565b506040820151611e466040850182611dfb565b506060820151611e596060850182611dfb565b50505050565b6000608082019050611e746000830184611e0a565b92915050565b611e8381611dd6565b8114611e8e57600080fd5b50565b600081359050611ea081611e7a565b92915050565b600060208284031215611ebc57611ebb611d37565b5b6000611eca84828501611e91565b91505092915050565b600081519050919050565b600082825260208201905092915050565b6000819050602082019050919050565b608082016000820151611f156000850182611dc7565b506020820151611f286020850182611de0565b506040820151611f3b6040850182611dfb565b506060820151611f4e6060850182611dfb565b50505050565b6000611f608383611eff565b60808301905092915050565b6000602082019050919050565b6000611f8482611ed3565b611f8e8185611ede565b9350611f9983611eef565b8060005b83811015611fca578151611fb18882611f54565b9750611fbc83611f6c565b925050600181019050611f9d565b5085935050505092915050565b60006020820190508181036000830152611ff18184611f79565b905092915050565b61200281611def565b82525050565b600060208201905061201d6000830184611ff9565b92915050565b600082825260208201905092915050565b7f506f6c69637920686f6c64657220646f65736e2774206861766520616e79206360008201527f6c61696d206170706c69636174696f6e73000000000000000000000000000000602082015250565b6000612090603183612023565b915061209b82612034565b604082019050919050565b600060208201905081810360008301526120bf81612083565b9050919050565b600081519050919050565b60005b838110156120ef5780820151818401526020810190506120d4565b60008484015250505050565b6000601f19601f8301169050919050565b6000612117826120c6565b6121218185612023565b93506121318185602086016120d1565b61213a816120fb565b840191505092915050565b6000602082019050818103600083015261215f818461210c565b905092915050565b60008151905061217681611d6e565b92915050565b60006020828403121561219257612191611d37565b5b60006121a084828501612167565b91505092915050565b60006121b482611d3c565b9050919050565b6121c4816121a9565b81146121cf57600080fd5b50565b6000815190506121e1816121bb565b92915050565b6000602082840312156121fd576121fc611d37565b5b600061220b848285016121d2565b91505092915050565b7f4f6e6c792074686520696e73757265722063616e2076657269667920636c616960008201527f6d73000000000000000000000000000000000000000000000000000000000000602082015250565b6000612270602283612023565b915061227b82612214565b604082019050919050565b6000602082019050818103600083015261229f81612263565b9050919050565b6122af81611d5c565b82525050565b60006020820190506122ca60008301846122a6565b92915050565b6000815190506122df81611e7a565b92915050565b6000602082840312156122fb576122fa611d37565b5b6000612309848285016122d0565b91505092915050565b61231b81611dd6565b82525050565b600060408201905061233660008301856122a6565b6123436020830184612312565b9392505050565b7f4e487b7100000000000000000000000000000000000000000000000000000000600052601160045260246000fd5b600061238482611dd6565b915061238f83611dd6565b92508282039050818111156123a7576123a661234a565b5b92915050565b7f4e487b7100000000000000000000000000000000000000000000000000000000600052603260045260246000fd5b7f436c61696d20686173206e6f74206265656e2076657269666965640000000000600082015250565b6000612412601b83612023565b915061241d826123dc565b602082019050919050565b6000602082019050818103600083015261244181612405565b9050919050565b7f436c61696d2068617320616c7265616479206265656e20706169640000000000600082015250565b600061247e601b83612023565b915061248982612448565b602082019050919050565b600060208201905081810360008301526124ad81612471565b9050919050565b6124bd816121a9565b82525050565b60006040820190506124d860008301856124b4565b6124e56020830184612312565b9392505050565b600080fd5b7f4e487b7100000000000000000000000000000000000000000000000000000000600052604160045260246000fd5b612529826120fb565b810181811067ffffffffffffffff82111715612548576125476124f1565b5b80604052505050565b600061255b611d2d565b90506125678282612520565b919050565b60006101008284031215612583576125826124ec565b5b61258e610100612551565b9050600061259e848285016122d0565b60008301525060206125b2848285016122d0565b60208301525060406125c6848285016122d0565b60408301525060606125da848285016122d0565b60608301525060806125ee848285016122d0565b60808301525060a0612602848285016122d0565b60a08301525060c0612616848285016122d0565b60c08301525060e061262a848285016122d0565b60e08301525092915050565b6000610100828403121561264d5761264c611d37565b5b600061265b8482850161256c565b91505092915050565b7f506f6c696379686f6c6465722073686f756c642070617920646564756374696260008201527f6c6520666f72206170706c79696e670000000000000000000000000000000000602082015250565b60006126c0602f83612023565b91506126cb82612664565b604082019050919050565b600060208201905081810360008301526126ef816126b3565b9050919050565b7f436c61696d20616d6f756e74206d75737420626520677265617465722074686160008201527f6e207a65726f0000000000000000000000000000000000000000000000000000602082015250565b6000612752602683612023565b915061275d826126f6565b604082019050919050565b6000602082019050818103600083015261278181612745565b9050919050565b7f436c61696d20616d6f756e74206d757374206265206c657373207468616e206f60008201527f7220657175616c20746f20706f6c696379206c696d6974000000000000000000602082015250565b60006127e4603783612023565b91506127ef82612788565b604082019050919050565b60006020820190508181036000830152612813816127d7565b9050919050565b61282381611def565b811461282e57600080fd5b50565b6000815190506128408161281a565b92915050565b60006020828403121561285c5761285b611d37565b5b600061286a84828501612831565b91505092915050565b7f4f6e6c7920706f6c69637920686f6c646572732063616e207375626d6974206360008201527f6c61696d73000000000000000000000000000000000000000000000000000000602082015250565b60006128cf602583612023565b91506128da82612873565b604082019050919050565b600060208201905081810360008301526128fe816128c2565b9050919050565b7f506f6c6963792069736e27742061637469766174656400000000000000000000600082015250565b600061293b601683612023565b915061294682612905565b602082019050919050565b6000602082019050818103600083015261296a8161292e565b9050919050565b7f50796d656e7420646561646c696e6520686173206265656e206d69737365642e60008201527f2054686520706f6c69637920697320696e616374697665000000000000000000602082015250565b60006129cd603783612023565b91506129d882612971565b604082019050919050565b600060208201905081810360008301526129fc816129c0565b9050919050565b7f506f6c6963792065787069726564000000000000000000000000000000000000600082015250565b6000612a39600e83612023565b9150612a4482612a03565b602082019050919050565b60006020820190508181036000830152612a6881612a2c565b9050919050565b7f506f6c69637920686f6c6465722068617320616c7265616479206170706c696560008201527f6420666f7220636c61696d000000000000000000000000000000000000000000602082015250565b6000612acb602b83612023565b9150612ad682612a6f565b604082019050919050565b60006020820190508181036000830152612afa81612abe565b9050919050565b7f4e487b7100000000000000000000000000000000000000000000000000000000600052603160045260246000fdfea26469706673582212201e5676daff9bc1b5c43a2962d189b6adb0799e0d79d4a3becfc589105182583564736f6c63430008120033",
  "linkReferences": {},
  "deployedLinkReferences": {}
}