{
  "_format": "hh-sol-artifact-1",
  "contractName": "ContractRegistry",
  "sourceName": "contracts/ContractRegistry.sol",
  "abi": [
    {
      "anonymous": false,
      "inputs": [
        {
          "indexed": true,
          "internalType": "address",
          "name": "previousOwner",
          "type": "address"
        },
        {
          "indexed": true,
          "internalType": "address",
          "name": "newOwner",
          "type": "address"
        }
      ],
      "name": "OwnershipTransferred",
      "type": "event"
    },
    {
      "inputs": [
        {
          "internalType": "address",
          "name": "_claimApplicationContractAddress",
          "type": "address"
        }
      ],
      "name": "addClaimApplicationContract",
      "outputs": [],
      "stateMutability": "nonpayable",
      "type": "function"
    },
    {
      "inputs": [
        {
          "internalType": "string",
          "name": "name",
          "type": "string"
        },
        {
          "internalType": "address",
          "name": "contractAddress",
          "type": "address"
        }
      ],
      "name": "addContract",
      "outputs": [],
      "stateMutability": "nonpayable",
      "type": "function"
    },
    {
      "inputs": [
        {
          "internalType": "address",
          "name": "_policyContractAddress",
          "type": "address"
        }
      ],
      "name": "addPolicyContract",
      "outputs": [],
      "stateMutability": "nonpayable",
      "type": "function"
    },
    {
      "inputs": [
        {
          "internalType": "string",
          "name": "name",
          "type": "string"
        }
      ],
      "name": "getContract",
      "outputs": [
        {
          "internalType": "address",
          "name": "",
          "type": "address"
        }
      ],
      "stateMutability": "view",
      "type": "function"
    },
    {
      "inputs": [],
      "name": "getContractNames",
      "outputs": [
        {
          "internalType": "string[]",
          "name": "",
          "type": "string[]"
        }
      ],
      "stateMutability": "view",
      "type": "function"
    },
    {
      "inputs": [],
      "name": "owner",
      "outputs": [
        {
          "internalType": "address",
          "name": "",
          "type": "address"
        }
      ],
      "stateMutability": "view",
      "type": "function"
    },
    {
      "inputs": [
        {
          "internalType": "string",
          "name": "name",
          "type": "string"
        }
      ],
      "name": "removeContract",
      "outputs": [],
      "stateMutability": "nonpayable",
      "type": "function"
    },
    {
      "inputs": [],
      "name": "renounceOwnership",
      "outputs": [],
      "stateMutability": "nonpayable",
      "type": "function"
    },
    {
      "inputs": [
        {
          "internalType": "address",
          "name": "newOwner",
          "type": "address"
        }
      ],
      "name": "transferOwnership",
      "outputs": [],
      "stateMutability": "nonpayable",
      "type": "function"
    }
  ],
  "bytecode": "0x608060405234801561001057600080fd5b5061002d61002261003260201b60201c565b61003a60201b60201c565b6100fe565b600033905090565b60008060009054906101000a900473ffffffffffffffffffffffffffffffffffffffff169050816000806101000a81548173ffffffffffffffffffffffffffffffffffffffff021916908373ffffffffffffffffffffffffffffffffffffffff1602179055508173ffffffffffffffffffffffffffffffffffffffff168173ffffffffffffffffffffffffffffffffffffffff167f8be0079c531659141344cd1fd0a4f28419497f9722a3daafe3b4186f6b6457e060405160405180910390a35050565b6113738061010d6000396000f3fe608060405234801561001057600080fd5b50600436106100935760003560e01c806397623b581161006657806397623b581461010e578063bf5b60161461012a578063d1bef55214610146578063f0c7ec5114610162578063f2fde38b1461017e57610093565b8063358177731461009857806337df1e9d146100c8578063715018a6146100e65780638da5cb5b146100f0575b600080fd5b6100b260048036038101906100ad9190610960565b61019a565b6040516100bf91906109ea565b60405180910390f35b6100d06101e2565b6040516100dd9190610b46565b60405180910390f35b6100ee6102bb565b005b6100f86102cf565b60405161010591906109ea565b60405180910390f35b61012860048036038101906101239190610960565b6102f8565b005b610144600480360381019061013f9190610b94565b610437565b005b610160600480360381019061015b9190610bf0565b610548565b005b61017c60048036038101906101779190610bf0565b610592565b005b61019860048036038101906101939190610bf0565b6105dc565b005b60006001826040516101ac9190610c59565b908152602001604051809103902060009054906101000a900473ffffffffffffffffffffffffffffffffffffffff169050919050565b60606002805480602002602001604051908101604052809291908181526020016000905b828210156102b257838290600052602060002001805461022590610c9f565b80601f016020809104026020016040519081016040528092919081815260200182805461025190610c9f565b801561029e5780601f106102735761010080835404028352916020019161029e565b820191906000526020600020905b81548152906001019060200180831161028157829003601f168201915b505050505081526020019060010190610206565b50505050905090565b6102c361065f565b6102cd60006106dd565b565b60008060009054906101000a900473ffffffffffffffffffffffffffffffffffffffff16905090565b61030061065f565b6001816040516103109190610c59565b908152602001604051809103902060006101000a81549073ffffffffffffffffffffffffffffffffffffffff021916905560005b6002805490508110156104335781805190602001206002828154811061036d5761036c610cd0565b5b906000526020600020016040516103849190610da2565b60405180910390200361042057600260016002805490506103a59190610df2565b815481106103b6576103b5610cd0565b5b90600052602060002001600282815481106103d4576103d3610cd0565b5b9060005260206000200190816103ea9190610ffd565b5060028054806103fd576103fc6110e5565b5b60019003818190600052602060002001600061041991906107a9565b9055610433565b808061042b90611114565b915050610344565b5050565b61043f61065f565b600073ffffffffffffffffffffffffffffffffffffffff166001836040516104679190610c59565b908152602001604051809103902060009054906101000a900473ffffffffffffffffffffffffffffffffffffffff1673ffffffffffffffffffffffffffffffffffffffff16036104e7576002829080600181540180825580915050600190039060005260206000200160009091909190915090816104e5919061115c565b505b806001836040516104f89190610c59565b908152602001604051809103902060006101000a81548173ffffffffffffffffffffffffffffffffffffffff021916908373ffffffffffffffffffffffffffffffffffffffff1602179055505050565b61055061065f565b61058f6040518060400160405280600681526020017f706f6c696379000000000000000000000000000000000000000000000000000081525082610437565b50565b61059a61065f565b6105d96040518060400160405280601081526020017f636c61696d4170706c69636174696f6e0000000000000000000000000000000081525082610437565b50565b6105e461065f565b600073ffffffffffffffffffffffffffffffffffffffff168173ffffffffffffffffffffffffffffffffffffffff1603610653576040517f08c379a000000000000000000000000000000000000000000000000000000000815260040161064a906112b1565b60405180910390fd5b61065c816106dd565b50565b6106676107a1565b73ffffffffffffffffffffffffffffffffffffffff166106856102cf565b73ffffffffffffffffffffffffffffffffffffffff16146106db576040517f08c379a00000000000000000000000000000000000000000000000000000000081526004016106d29061131d565b60405180910390fd5b565b60008060009054906101000a900473ffffffffffffffffffffffffffffffffffffffff169050816000806101000a81548173ffffffffffffffffffffffffffffffffffffffff021916908373ffffffffffffffffffffffffffffffffffffffff1602179055508173ffffffffffffffffffffffffffffffffffffffff168173ffffffffffffffffffffffffffffffffffffffff167f8be0079c531659141344cd1fd0a4f28419497f9722a3daafe3b4186f6b6457e060405160405180910390a35050565b600033905090565b5080546107b590610c9f565b6000825580601f106107c757506107e6565b601f0160209004906000526020600020908101906107e591906107e9565b5b50565b5b808211156108025760008160009055506001016107ea565b5090565b6000604051905090565b600080fd5b600080fd5b600080fd5b600080fd5b6000601f19601f8301169050919050565b7f4e487b7100000000000000000000000000000000000000000000000000000000600052604160045260246000fd5b61086d82610824565b810181811067ffffffffffffffff8211171561088c5761088b610835565b5b80604052505050565b600061089f610806565b90506108ab8282610864565b919050565b600067ffffffffffffffff8211156108cb576108ca610835565b5b6108d482610824565b9050602081019050919050565b82818337600083830152505050565b60006109036108fe846108b0565b610895565b90508281526020810184848401111561091f5761091e61081f565b5b61092a8482856108e1565b509392505050565b600082601f8301126109475761094661081a565b5b81356109578482602086016108f0565b91505092915050565b60006020828403121561097657610975610810565b5b600082013567ffffffffffffffff81111561099457610993610815565b5b6109a084828501610932565b91505092915050565b600073ffffffffffffffffffffffffffffffffffffffff82169050919050565b60006109d4826109a9565b9050919050565b6109e4816109c9565b82525050565b60006020820190506109ff60008301846109db565b92915050565b600081519050919050565b600082825260208201905092915050565b6000819050602082019050919050565b600081519050919050565b600082825260208201905092915050565b60005b83811015610a6b578082015181840152602081019050610a50565b60008484015250505050565b6000610a8282610a31565b610a8c8185610a3c565b9350610a9c818560208601610a4d565b610aa581610824565b840191505092915050565b6000610abc8383610a77565b905092915050565b6000602082019050919050565b6000610adc82610a05565b610ae68185610a10565b935083602082028501610af885610a21565b8060005b85811015610b345784840389528151610b158582610ab0565b9450610b2083610ac4565b925060208a01995050600181019050610afc565b50829750879550505050505092915050565b60006020820190508181036000830152610b608184610ad1565b905092915050565b610b71816109c9565b8114610b7c57600080fd5b50565b600081359050610b8e81610b68565b92915050565b60008060408385031215610bab57610baa610810565b5b600083013567ffffffffffffffff811115610bc957610bc8610815565b5b610bd585828601610932565b9250506020610be685828601610b7f565b9150509250929050565b600060208284031215610c0657610c05610810565b5b6000610c1484828501610b7f565b91505092915050565b600081905092915050565b6000610c3382610a31565b610c3d8185610c1d565b9350610c4d818560208601610a4d565b80840191505092915050565b6000610c658284610c28565b915081905092915050565b7f4e487b7100000000000000000000000000000000000000000000000000000000600052602260045260246000fd5b60006002820490506001821680610cb757607f821691505b602082108103610cca57610cc9610c70565b5b50919050565b7f4e487b7100000000000000000000000000000000000000000000000000000000600052603260045260246000fd5b600081905092915050565b60008190508160005260206000209050919050565b60008154610d2c81610c9f565b610d368186610cff565b94506001821660008114610d515760018114610d6657610d99565b60ff1983168652811515820286019350610d99565b610d6f85610d0a565b60005b83811015610d9157815481890152600182019150602081019050610d72565b838801955050505b50505092915050565b6000610dae8284610d1f565b915081905092915050565b6000819050919050565b7f4e487b7100000000000000000000000000000000000000000000000000000000600052601160045260246000fd5b6000610dfd82610db9565b9150610e0883610db9565b9250828203905081811115610e2057610e1f610dc3565b5b92915050565b600081549050610e3581610c9f565b9050919050565b60008190508160005260206000209050919050565b60008190508160005260206000209050919050565b60006020601f8301049050919050565b600082821b905092915050565b600060088302610eb37fffffffffffffffffffffffffffffffffffffffffffffffffffffffffffffffff82610e76565b610ebd8683610e76565b95508019841693508086168417925050509392505050565b6000819050919050565b6000610efa610ef5610ef084610db9565b610ed5565b610db9565b9050919050565b6000819050919050565b610f1483610edf565b610f28610f2082610f01565b848454610e83565b825550505050565b600090565b610f3d610f30565b610f48818484610f0b565b505050565b5b81811015610f6c57610f61600082610f35565b600181019050610f4e565b5050565b601f821115610fb157610f8281610e3c565b610f8b84610e66565b81016020851015610f9a578190505b610fae610fa685610e66565b830182610f4d565b50505b505050565b600082821c905092915050565b6000610fd460001984600802610fb6565b1980831691505092915050565b6000610fed8383610fc3565b9150826002028217905092915050565b81810361100b5750506110e3565b61101482610e26565b67ffffffffffffffff81111561102d5761102c610835565b5b6110378254610c9f565b611042828285610f70565b6000601f831160018114611071576000841561105f578287015490505b6110698582610fe1565b8655506110dc565b601f19841661107f87610e51565b965061108a86610e3c565b60005b828110156110b25784890154825560018201915060018501945060208101905061108d565b868310156110cf57848901546110cb601f891682610fc3565b8355505b6001600288020188555050505b5050505050505b565b7f4e487b7100000000000000000000000000000000000000000000000000000000600052603160045260246000fd5b600061111f82610db9565b91507fffffffffffffffffffffffffffffffffffffffffffffffffffffffffffffffff820361115157611150610dc3565b5b600182019050919050565b61116582610a31565b67ffffffffffffffff81111561117e5761117d610835565b5b6111888254610c9f565b611193828285610f70565b600060209050601f8311600181146111c657600084156111b4578287015190505b6111be8582610fe1565b865550611226565b601f1984166111d486610e3c565b60005b828110156111fc578489015182556001820191506020850194506020810190506111d7565b868310156112195784890151611215601f891682610fc3565b8355505b6001600288020188555050505b505050505050565b600082825260208201905092915050565b7f4f776e61626c653a206e6577206f776e657220697320746865207a65726f206160008201527f6464726573730000000000000000000000000000000000000000000000000000602082015250565b600061129b60268361122e565b91506112a68261123f565b604082019050919050565b600060208201905081810360008301526112ca8161128e565b9050919050565b7f4f776e61626c653a2063616c6c6572206973206e6f7420746865206f776e6572600082015250565b600061130760208361122e565b9150611312826112d1565b602082019050919050565b60006020820190508181036000830152611336816112fa565b905091905056fea26469706673582212204aba79922f4c6e804d73fe193a650e2283ef3873fd48090f3bd7b3d5b9d5714664736f6c63430008120033",
  "linkReferences": {},
  "deployedLinkReferences": {}
}