{
  "_format": "hh-sol-artifact-1",
  "contractName": "Policy",
  "sourceName": "contracts/Policy.sol",
  "abi": [
    {
      "inputs": [
        {
          "internalType": "address",
          "name": "_contractRegistryAddress",
          "type": "address"
        }
      ],
      "stateMutability": "nonpayable",
      "type": "constructor"
    },
    {
      "anonymous": false,
      "inputs": [
        {
          "indexed": false,
          "internalType": "address",
          "name": "policyHolderAddress",
          "type": "address"
        },
        {
          "indexed": false,
          "internalType": "uint256",
          "name": "policyNumber",
          "type": "uint256"
        },
        {
          "indexed": false,
          "internalType": "uint256",
          "name": "premiumAmount",
          "type": "uint256"
        }
      ],
      "name": "PolicyCreated",
      "type": "event"
    },
    {
      "anonymous": false,
      "inputs": [
        {
          "indexed": false,
          "internalType": "address",
          "name": "_policyHolder",
          "type": "address"
        },
        {
          "indexed": false,
          "internalType": "uint256",
          "name": "_policyNumber",
          "type": "uint256"
        },
        {
          "indexed": false,
          "internalType": "uint256",
          "name": "_paidPeriods",
          "type": "uint256"
        }
      ],
      "name": "PremiumPaid",
      "type": "event"
    },
    {
      "stateMutability": "payable",
      "type": "fallback"
    },
    {
      "inputs": [],
      "name": "basePolicyTerm",
      "outputs": [
        {
          "internalType": "uint256",
          "name": "",
          "type": "uint256"
        }
      ],
      "stateMutability": "view",
      "type": "function"
    },
    {
      "inputs": [
        {
          "internalType": "uint8",
          "name": "_age",
          "type": "uint8"
        },
        {
          "internalType": "bool",
          "name": "_sex",
          "type": "bool"
        },
        {
          "internalType": "uint256",
          "name": "_baseTermsNumber",
          "type": "uint256"
        }
      ],
      "name": "calculatePremium",
      "outputs": [
        {
          "internalType": "uint256",
          "name": "",
          "type": "uint256"
        }
      ],
      "stateMutability": "view",
      "type": "function"
    },
    {
      "inputs": [
        {
          "internalType": "uint256",
          "name": "_age",
          "type": "uint256"
        },
        {
          "internalType": "bool",
          "name": "_sex",
          "type": "bool"
        }
      ],
      "name": "checkEligibility",
      "outputs": [
        {
          "internalType": "bool",
          "name": "",
          "type": "bool"
        }
      ],
      "stateMutability": "pure",
      "type": "function"
    },
    {
      "inputs": [
        {
          "internalType": "uint8",
          "name": "_age",
          "type": "uint8"
        },
        {
          "internalType": "bool",
          "name": "_sex",
          "type": "bool"
        },
        {
          "internalType": "uint256",
          "name": "_baseTermsNumber",
          "type": "uint256"
        }
      ],
      "name": "createPolicy",
      "outputs": [
        {
          "internalType": "uint256",
          "name": "",
          "type": "uint256"
        }
      ],
      "stateMutability": "nonpayable",
      "type": "function"
    },
    {
      "inputs": [],
      "name": "deductiblePercentage",
      "outputs": [
        {
          "internalType": "uint256",
          "name": "",
          "type": "uint256"
        }
      ],
      "stateMutability": "view",
      "type": "function"
    },
    {
      "inputs": [],
      "name": "getBalance",
      "outputs": [
        {
          "internalType": "uint256",
          "name": "",
          "type": "uint256"
        }
      ],
      "stateMutability": "view",
      "type": "function"
    },
    {
      "inputs": [
        {
          "internalType": "address",
          "name": "_policyHolder",
          "type": "address"
        }
      ],
      "name": "getPolicyDetails",
      "outputs": [
        {
          "components": [
            {
              "internalType": "uint256",
              "name": "policyNumber",
              "type": "uint256"
            },
            {
              "internalType": "uint256",
              "name": "startDate",
              "type": "uint256"
            },
            {
              "internalType": "uint256",
              "name": "endDate",
              "type": "uint256"
            },
            {
              "internalType": "uint256",
              "name": "premiumAmount",
              "type": "uint256"
            },
            {
              "internalType": "uint256",
              "name": "policyLimit",
              "type": "uint256"
            },
            {
              "internalType": "uint256",
              "name": "deductible",
              "type": "uint256"
            },
            {
              "internalType": "uint256",
              "name": "policyTerm",
              "type": "uint256"
            },
            {
              "internalType": "uint256",
              "name": "paymentPeriod",
              "type": "uint256"
            }
          ],
          "internalType": "struct Policy.PolicyDetails",
          "name": "",
          "type": "tuple"
        }
      ],
      "stateMutability": "view",
      "type": "function"
    },
    {
      "inputs": [
        {
          "internalType": "address",
          "name": "_policyHolder",
          "type": "address"
        }
      ],
      "name": "getPolicyHolder",
      "outputs": [
        {
          "components": [
            {
              "internalType": "address",
              "name": "policyHolderAddress",
              "type": "address"
            },
            {
              "internalType": "uint256",
              "name": "policyNumber",
              "type": "uint256"
            },
            {
              "internalType": "uint8",
              "name": "age",
              "type": "uint8"
            },
            {
              "internalType": "bool",
              "name": "sex",
              "type": "bool"
            }
          ],
          "internalType": "struct Policy.PolicyHolder",
          "name": "",
          "type": "tuple"
        }
      ],
      "stateMutability": "view",
      "type": "function"
    },
    {
      "inputs": [
        {
          "internalType": "address",
          "name": "_policyHolder",
          "type": "address"
        }
      ],
      "name": "getPolicyNumber",
      "outputs": [
        {
          "internalType": "uint256",
          "name": "",
          "type": "uint256"
        }
      ],
      "stateMutability": "view",
      "type": "function"
    },
    {
      "inputs": [
        {
          "internalType": "address",
          "name": "_policyHolder",
          "type": "address"
        }
      ],
      "name": "getPolicyPayments",
      "outputs": [
        {
          "components": [
            {
              "internalType": "uint256",
              "name": "policyNumber",
              "type": "uint256"
            },
            {
              "internalType": "uint256",
              "name": "nextDeadline",
              "type": "uint256"
            },
            {
              "internalType": "uint256",
              "name": "paidPeriods",
              "type": "uint256"
            }
          ],
          "internalType": "struct Policy.PolicyPayments",
          "name": "",
          "type": "tuple"
        }
      ],
      "stateMutability": "view",
      "type": "function"
    },
    {
      "inputs": [],
      "name": "insurer",
      "outputs": [
        {
          "internalType": "address payable",
          "name": "",
          "type": "address"
        }
      ],
      "stateMutability": "view",
      "type": "function"
    },
    {
      "inputs": [
        {
          "internalType": "address",
          "name": "_policyHolder",
          "type": "address"
        }
      ],
      "name": "isPolicyDeadlineValid",
      "outputs": [
        {
          "internalType": "bool",
          "name": "",
          "type": "bool"
        }
      ],
      "stateMutability": "view",
      "type": "function"
    },
    {
      "inputs": [
        {
          "internalType": "uint256",
          "name": "_policyNumber",
          "type": "uint256"
        }
      ],
      "name": "isPolicyDeadlineValid",
      "outputs": [
        {
          "internalType": "bool",
          "name": "",
          "type": "bool"
        }
      ],
      "stateMutability": "view",
      "type": "function"
    },
    {
      "inputs": [
        {
          "internalType": "address",
          "name": "_policyHolder",
          "type": "address"
        }
      ],
      "name": "isPolicyEndTimeValid",
      "outputs": [
        {
          "internalType": "bool",
          "name": "",
          "type": "bool"
        }
      ],
      "stateMutability": "view",
      "type": "function"
    },
    {
      "inputs": [
        {
          "internalType": "uint256",
          "name": "_policyNumber",
          "type": "uint256"
        }
      ],
      "name": "isPolicyEndTimeValid",
      "outputs": [
        {
          "internalType": "bool",
          "name": "",
          "type": "bool"
        }
      ],
      "stateMutability": "view",
      "type": "function"
    },
    {
      "inputs": [
        {
          "internalType": "address",
          "name": "_policyHolder",
          "type": "address"
        }
      ],
      "name": "isPolicyHolder",
      "outputs": [
        {
          "internalType": "bool",
          "name": "",
          "type": "bool"
        }
      ],
      "stateMutability": "view",
      "type": "function"
    },
    {
      "inputs": [
        {
          "internalType": "uint256",
          "name": "_policyNumber",
          "type": "uint256"
        }
      ],
      "name": "isPolicyStarted",
      "outputs": [
        {
          "internalType": "bool",
          "name": "",
          "type": "bool"
        }
      ],
      "stateMutability": "view",
      "type": "function"
    },
    {
      "inputs": [
        {
          "internalType": "address",
          "name": "_policyHolder",
          "type": "address"
        }
      ],
      "name": "isPolicyStarted",
      "outputs": [
        {
          "internalType": "bool",
          "name": "",
          "type": "bool"
        }
      ],
      "stateMutability": "view",
      "type": "function"
    },
    {
      "inputs": [],
      "name": "makePayment",
      "outputs": [],
      "stateMutability": "payable",
      "type": "function"
    },
    {
      "inputs": [
        {
          "internalType": "address payable",
          "name": "_policyHolder",
          "type": "address"
        },
        {
          "internalType": "uint256",
          "name": "_claimAmount",
          "type": "uint256"
        }
      ],
      "name": "payClaim",
      "outputs": [],
      "stateMutability": "payable",
      "type": "function"
    },
    {
      "inputs": [
        {
          "internalType": "uint256",
          "name": "",
          "type": "uint256"
        }
      ],
      "name": "policies",
      "outputs": [
        {
          "internalType": "uint256",
          "name": "policyNumber",
          "type": "uint256"
        },
        {
          "internalType": "uint256",
          "name": "startDate",
          "type": "uint256"
        },
        {
          "internalType": "uint256",
          "name": "endDate",
          "type": "uint256"
        },
        {
          "internalType": "uint256",
          "name": "premiumAmount",
          "type": "uint256"
        },
        {
          "internalType": "uint256",
          "name": "policyLimit",
          "type": "uint256"
        },
        {
          "internalType": "uint256",
          "name": "deductible",
          "type": "uint256"
        },
        {
          "internalType": "uint256",
          "name": "policyTerm",
          "type": "uint256"
        },
        {
          "internalType": "uint256",
          "name": "paymentPeriod",
          "type": "uint256"
        }
      ],
      "stateMutability": "view",
      "type": "function"
    },
    {
      "inputs": [],
      "name": "policyCreationTime",
      "outputs": [
        {
          "internalType": "uint256",
          "name": "",
          "type": "uint256"
        }
      ],
      "stateMutability": "view",
      "type": "function"
    },
    {
      "inputs": [
        {
          "internalType": "uint256",
          "name": "",
          "type": "uint256"
        }
      ],
      "name": "policyHolderAddresses",
      "outputs": [
        {
          "internalType": "address",
          "name": "",
          "type": "address"
        }
      ],
      "stateMutability": "view",
      "type": "function"
    },
    {
      "inputs": [
        {
          "internalType": "address",
          "name": "",
          "type": "address"
        }
      ],
      "name": "policyHolders",
      "outputs": [
        {
          "internalType": "address",
          "name": "policyHolderAddress",
          "type": "address"
        },
        {
          "internalType": "uint256",
          "name": "policyNumber",
          "type": "uint256"
        },
        {
          "internalType": "uint8",
          "name": "age",
          "type": "uint8"
        },
        {
          "internalType": "bool",
          "name": "sex",
          "type": "bool"
        }
      ],
      "stateMutability": "view",
      "type": "function"
    },
    {
      "inputs": [],
      "name": "policyLimit",
      "outputs": [
        {
          "internalType": "uint256",
          "name": "",
          "type": "uint256"
        }
      ],
      "stateMutability": "view",
      "type": "function"
    },
    {
      "inputs": [],
      "name": "policyPaymentPeriod",
      "outputs": [
        {
          "internalType": "uint256",
          "name": "",
          "type": "uint256"
        }
      ],
      "stateMutability": "view",
      "type": "function"
    },
    {
      "inputs": [
        {
          "internalType": "uint256",
          "name": "",
          "type": "uint256"
        }
      ],
      "name": "policyPayments",
      "outputs": [
        {
          "internalType": "uint256",
          "name": "policyNumber",
          "type": "uint256"
        },
        {
          "internalType": "uint256",
          "name": "nextDeadline",
          "type": "uint256"
        },
        {
          "internalType": "uint256",
          "name": "paidPeriods",
          "type": "uint256"
        }
      ],
      "stateMutability": "view",
      "type": "function"
    },
    {
      "stateMutability": "payable",
      "type": "receive"
    }
  ],
  "bytecode": "0x608060405264e8d4a51000600255600a6003556301dfe2006004556224ea0060055561012c6006553480156200003457600080fd5b5060405162002c9a38038062002c9a83398181016040528101906200005a91906200014c565b806000806101000a81548173ffffffffffffffffffffffffffffffffffffffff021916908373ffffffffffffffffffffffffffffffffffffffff16021790555033600160006101000a81548173ffffffffffffffffffffffffffffffffffffffff021916908373ffffffffffffffffffffffffffffffffffffffff160217905550506200017e565b600080fd5b600073ffffffffffffffffffffffffffffffffffffffff82169050919050565b60006200011482620000e7565b9050919050565b620001268162000107565b81146200013257600080fd5b50565b60008151905062000146816200011b565b92915050565b600060208284031215620001655762000164620000e2565b5b6000620001758482850162000135565b91505092915050565b612b0c806200018e6000396000f3fe6080604052600436106101a05760003560e01c80635eb7d95a116100ec578063b6bbad121161008a578063d8d7970011610064578063d8d79700146106b5578063dbc837c5146106bf578063e0463612146106ea578063eded79a214610727576101a7565b8063b6bbad12146105f7578063c37bec1514610634578063d3e8948314610671576101a7565b806378782039116100c657806378782039146105155780637fcdf27a14610552578063993c6a4b1461058f578063ad52cf89146105ba576101a7565b80635eb7d95a1461045b57806370b68a2a1461049857806376560e80146104d8576101a7565b80632a4781921161015957806345f23e291161013357806345f23e29146103ac57806350802e3f146103e9578063548c3ee8146104055780635945e48f14610430576101a7565b80632a478192146102f35780632c1f94ce146103325780632d8c1c761461036f576101a7565b80630abd63e4146101a95780630f78984b146101e657806312065fe01461022357806319ae3c6a1461024e5780631fb2b0d31461028b5780632998e07c146102c8576101a7565b366101a757005b005b3480156101b557600080fd5b506101d060048036038101906101cb9190611b94565b610752565b6040516101dd9190611bdc565b60405180910390f35b3480156101f257600080fd5b5061020d60048036038101906102089190611c55565b6107d6565b60405161021a9190611bdc565b60405180910390f35b34801561022f57600080fd5b5061023861082a565b6040516102459190611c91565b60405180910390f35b34801561025a57600080fd5b5061027560048036038101906102709190611c55565b610832565b6040516102829190611bdc565b60405180910390f35b34801561029757600080fd5b506102b260048036038101906102ad9190611b94565b610886565b6040516102bf9190611cbb565b60405180910390f35b3480156102d457600080fd5b506102dd6108b9565b6040516102ea9190611c91565b60405180910390f35b3480156102ff57600080fd5b5061031a60048036038101906103159190611b94565b6108bf565b60405161032993929190611cd6565b60405180910390f35b34801561033e57600080fd5b5061035960048036038101906103549190611b94565b6108e9565b6040516103669190611bdc565b60405180910390f35b34801561037b57600080fd5b5061039660048036038101906103919190611d39565b61096d565b6040516103a39190611bdc565b60405180910390f35b3480156103b857600080fd5b506103d360048036038101906103ce9190611c55565b61098c565b6040516103e09190611e2a565b60405180910390f35b61040360048036038101906103fe9190611e84565b610adf565b005b34801561041157600080fd5b5061041a610cf5565b6040516104279190611c91565b60405180910390f35b34801561043c57600080fd5b50610445610cfb565b6040516104529190611c91565b60405180910390f35b34801561046757600080fd5b50610482600480360381019061047d9190611c55565b610d01565b60405161048f9190611c91565b60405180910390f35b3480156104a457600080fd5b506104bf60048036038101906104ba9190611c55565b610dd4565b6040516104cf9493929190611ee0565b60405180910390f35b3480156104e457600080fd5b506104ff60048036038101906104fa9190611b94565b610e3e565b60405161050c9190611bdc565b60405180910390f35b34801561052157600080fd5b5061053c60048036038101906105379190611c55565b610e8f565b6040516105499190611f67565b60405180910390f35b34801561055e57600080fd5b5061057960048036038101906105749190611c55565b610faf565b6040516105869190611bdc565b60405180910390f35b34801561059b57600080fd5b506105a4611003565b6040516105b19190611c91565b60405180910390f35b3480156105c657600080fd5b506105e160048036038101906105dc9190611c55565b611009565b6040516105ee9190612004565b60405180910390f35b34801561060357600080fd5b5061061e60048036038101906106199190611c55565b611181565b60405161062b9190611bdc565b60405180910390f35b34801561064057600080fd5b5061065b6004803603810190610656919061204b565b6111d0565b6040516106689190611c91565b60405180910390f35b34801561067d57600080fd5b5061069860048036038101906106939190611b94565b6116f0565b6040516106ac98979695949392919061209e565b60405180910390f35b6106bd611738565b005b3480156106cb57600080fd5b506106d46119cf565b6040516106e1919061212b565b60405180910390f35b3480156106f657600080fd5b50610711600480360381019061070c919061204b565b6119f5565b60405161071e9190611c91565b60405180910390f35b34801561073357600080fd5b5061073c611aaa565b6040516107499190611c91565b60405180910390f35b60008060096000848152602001908152602001600020604051806101000160405290816000820154815260200160018201548152602001600282015481526020016003820154815260200160048201548152602001600582015481526020016006820154815260200160078201548152505090504281602001511115915050919050565b6000610823600760008473ffffffffffffffffffffffffffffffffffffffff1673ffffffffffffffffffffffffffffffffffffffff168152602001908152602001600020600101546108e9565b9050919050565b600047905090565b600061087f600760008473ffffffffffffffffffffffffffffffffffffffff1673ffffffffffffffffffffffffffffffffffffffff16815260200190815260200160002060010154610e3e565b9050919050565b60086020528060005260406000206000915054906101000a900473ffffffffffffffffffffffffffffffffffffffff1681565b60025481565b600a6020528060005260406000206000915090508060000154908060010154908060020154905083565b60008060096000848152602001908152602001600020604051806101000160405290816000820154815260200160018201548152602001600282015481526020016003820154815260200160048201548152602001600582015481526020016006820154815260200160078201548152505090508060400151421115915050919050565b6000808311801561098457508180610983575081155b5b905092915050565b610994611ab0565b816000600760008373ffffffffffffffffffffffffffffffffffffffff1673ffffffffffffffffffffffffffffffffffffffff1681526020019081526020016000206001015403610a1a576040517f08c379a0000000000000000000000000000000000000000000000000000000008152600401610a11906121c9565b60405180910390fd5b6000600760008573ffffffffffffffffffffffffffffffffffffffff1673ffffffffffffffffffffffffffffffffffffffff16815260200190815260200160002060010154905060006009600083815260200190815260200160002060405180610100016040529081600082015481526020016001820154815260200160028201548152602001600382015481526020016004820154815260200160058201548152602001600682015481526020016007820154815250509050809350505050919050565b60008060009054906101000a900473ffffffffffffffffffffffffffffffffffffffff1673ffffffffffffffffffffffffffffffffffffffff1663358177736040518060400160405280601081526020017f636c61696d4170706c69636174696f6e000000000000000000000000000000008152506040518263ffffffff1660e01b8152600401610b709190612268565b602060405180830381865afa158015610b8d573d6000803e3d6000fd5b505050506040513d601f19601f82011682018060405250810190610bb1919061229f565b90508073ffffffffffffffffffffffffffffffffffffffff163373ffffffffffffffffffffffffffffffffffffffff1614610c21576040517f08c379a0000000000000000000000000000000000000000000000000000000008152600401610c189061233e565b60405180910390fd5b6000610c2c84610d01565b905060006009600083815260200190815260200160002090508060040154841115610c8c576040517f08c379a0000000000000000000000000000000000000000000000000000000008152600401610c83906123d0565b60405180910390fd5b83816004016000828254610ca0919061241f565b925050819055508473ffffffffffffffffffffffffffffffffffffffff166108fc859081150290604051600060405180830381858888f19350505050158015610ced573d6000803e3d6000fd5b505050505050565b60065481565b60045481565b6000816000600760008373ffffffffffffffffffffffffffffffffffffffff1673ffffffffffffffffffffffffffffffffffffffff1681526020019081526020016000206001015403610d89576040517f08c379a0000000000000000000000000000000000000000000000000000000008152600401610d80906121c9565b60405180910390fd5b600760008473ffffffffffffffffffffffffffffffffffffffff1673ffffffffffffffffffffffffffffffffffffffff16815260200190815260200160002060010154915050919050565b60076020528060005260406000206000915090508060000160009054906101000a900473ffffffffffffffffffffffffffffffffffffffff16908060010154908060020160009054906101000a900460ff16908060020160019054906101000a900460ff16905084565b600080600a6000848152602001908152602001600020604051806060016040529081600082015481526020016001820154815260200160028201548152505090508060200151421115915050919050565b610e97611af5565b816000600760008373ffffffffffffffffffffffffffffffffffffffff1673ffffffffffffffffffffffffffffffffffffffff1681526020019081526020016000206001015403610f1d576040517f08c379a0000000000000000000000000000000000000000000000000000000008152600401610f14906121c9565b60405180910390fd5b6000600760008573ffffffffffffffffffffffffffffffffffffffff1673ffffffffffffffffffffffffffffffffffffffff1681526020019081526020016000206001015490506000600a600083815260200190815260200160002060405180606001604052908160008201548152602001600182015481526020016002820154815250509050809350505050919050565b6000610ffc600760008473ffffffffffffffffffffffffffffffffffffffff1673ffffffffffffffffffffffffffffffffffffffff16815260200190815260200160002060010154610752565b9050919050565b60055481565b611011611b16565b816000600760008373ffffffffffffffffffffffffffffffffffffffff1673ffffffffffffffffffffffffffffffffffffffff1681526020019081526020016000206001015403611097576040517f08c379a000000000000000000000000000000000000000000000000000000000815260040161108e906121c9565b60405180910390fd5b600760008473ffffffffffffffffffffffffffffffffffffffff1673ffffffffffffffffffffffffffffffffffffffff1681526020019081526020016000206040518060800160405290816000820160009054906101000a900473ffffffffffffffffffffffffffffffffffffffff1673ffffffffffffffffffffffffffffffffffffffff1673ffffffffffffffffffffffffffffffffffffffff168152602001600182015481526020016002820160009054906101000a900460ff1660ff1660ff1681526020016002820160019054906101000a900460ff161515151581525050915050919050565b600080600760008473ffffffffffffffffffffffffffffffffffffffff1673ffffffffffffffffffffffffffffffffffffffff1681526020019081526020016000206001015414159050919050565b6000808460ff1611611217576040517f08c379a000000000000000000000000000000000000000000000000000000000815260040161120e9061249f565b60405180910390fd5b6112248460ff168461096d565b611263576040517f08c379a000000000000000000000000000000000000000000000000000000000815260040161125a9061250b565b60405180910390fd5b6000600760003373ffffffffffffffffffffffffffffffffffffffff1673ffffffffffffffffffffffffffffffffffffffff16815260200190815260200160002060010154905060006009600083815260200190815260200160002060020154905060008214806112d45750428111155b611313576040517f08c379a000000000000000000000000000000000000000000000000000000000815260040161130a9061259d565b60405180910390fd5b6000841180156113235750600684105b611362576040517f08c379a00000000000000000000000000000000000000000000000000000000081526004016113599061262f565b60405180910390fd5b600084600454611372919061264f565b905060006113818888886119f5565b9050423382604051602001611398939291906126fa565b6040516020818303038152906040528051906020012060001c9350600060405180608001604052803373ffffffffffffffffffffffffffffffffffffffff1681526020018681526020018a60ff168152602001891515815250905080600760003373ffffffffffffffffffffffffffffffffffffffff1673ffffffffffffffffffffffffffffffffffffffff16815260200190815260200160002060008201518160000160006101000a81548173ffffffffffffffffffffffffffffffffffffffff021916908373ffffffffffffffffffffffffffffffffffffffff1602179055506020820151816001015560408201518160020160006101000a81548160ff021916908360ff16021790555060608201518160020160016101000a81548160ff021916908315150217905550905050336008600087815260200190815260200160002060006101000a81548173ffffffffffffffffffffffffffffffffffffffff021916908373ffffffffffffffffffffffffffffffffffffffff16021790555060006006544261152a9190612737565b9050600060646003548561153e919061264f565b611548919061279a565b905084826115569190612737565b955060006040518061010001604052808981526020018481526020018881526020018681526020016002548152602001838152602001878152602001600554815250905080600960008a8152602001908152602001600020600082015181600001556020820151816001015560408201518160020155606082015181600301556080820151816004015560a0820151816005015560c0820151816006015560e0820151816007015590505060405180606001604052808981526020018481526020016000815250600a60008a815260200190815260200160002060008201518160000155602082015181600101556040820151816002015590505033600860008a815260200190815260200160002060006101000a81548173ffffffffffffffffffffffffffffffffffffffff021916908373ffffffffffffffffffffffffffffffffffffffff1602179055507f93aceb1c5e55aa194781a0423a101b97efa4a051e8d2fc2ba332ca75f4e4b6a73389876040516116d6939291906127cb565b60405180910390a187985050505050505050509392505050565b60096020528060005260406000206000915090508060000154908060010154908060020154908060030154908060040154908060050154908060060154908060070154905088565b336000600760008373ffffffffffffffffffffffffffffffffffffffff1673ffffffffffffffffffffffffffffffffffffffff16815260200190815260200160002060010154036117be576040517f08c379a00000000000000000000000000000000000000000000000000000000081526004016117b5906121c9565b60405180910390fd5b336117c881610832565b611807576040517f08c379a00000000000000000000000000000000000000000000000000000000081526004016117fe90612874565b60405180910390fd5b611810816107d6565b61184f576040517f08c379a0000000000000000000000000000000000000000000000000000000008152600401611846906128e0565b60405180910390fd5b60003411611892576040517f08c379a000000000000000000000000000000000000000000000000000000000815260040161188990612972565b60405180910390fd5b600061189d3361098c565b90506000600a6000836000015181526020019081526020016000209050816040015181600101541115611905576040517f08c379a00000000000000000000000000000000000000000000000000000000081526004016118fc90612a04565b60405180910390fd5b8160600151341461194b576040517f08c379a000000000000000000000000000000000000000000000000000000000815260040161194290612a70565b60405180910390fd5b8160e001518160010160008282546119639190612737565b92505081905550600181600201600082825461197f9190612737565b925050819055507f395bd21029ce552d1941c174d800a5599c4b1b28887cc9b9eea83c5409da93ef33836000015183600201546040516119c1939291906127cb565b60405180910390a150505050565b600160009054906101000a900473ffffffffffffffffffffffffffffffffffffffff1681565b60008060649050600084611a0a576064611a0d565b60005b60ff1662989680611a1e9190612a9f565b62ffffff1690506000600a90506000818385611a3a919061264f565b611a44919061264f565b90506000600187611a55919061241f565b6005611a61919061264f565b6064611a6d919061241f565b90506000818a60ff16600254611a83919061264f565b611a8d919061264f565b90508281611a9b919061279a565b96505050505050509392505050565b60035481565b60405180610100016040528060008152602001600081526020016000815260200160008152602001600081526020016000815260200160008152602001600081525090565b60405180606001604052806000815260200160008152602001600081525090565b6040518060800160405280600073ffffffffffffffffffffffffffffffffffffffff16815260200160008152602001600060ff1681526020016000151581525090565b600080fd5b6000819050919050565b611b7181611b5e565b8114611b7c57600080fd5b50565b600081359050611b8e81611b68565b92915050565b600060208284031215611baa57611ba9611b59565b5b6000611bb884828501611b7f565b91505092915050565b60008115159050919050565b611bd681611bc1565b82525050565b6000602082019050611bf16000830184611bcd565b92915050565b600073ffffffffffffffffffffffffffffffffffffffff82169050919050565b6000611c2282611bf7565b9050919050565b611c3281611c17565b8114611c3d57600080fd5b50565b600081359050611c4f81611c29565b92915050565b600060208284031215611c6b57611c6a611b59565b5b6000611c7984828501611c40565b91505092915050565b611c8b81611b5e565b82525050565b6000602082019050611ca66000830184611c82565b92915050565b611cb581611c17565b82525050565b6000602082019050611cd06000830184611cac565b92915050565b6000606082019050611ceb6000830186611c82565b611cf86020830185611c82565b611d056040830184611c82565b949350505050565b611d1681611bc1565b8114611d2157600080fd5b50565b600081359050611d3381611d0d565b92915050565b60008060408385031215611d5057611d4f611b59565b5b6000611d5e85828601611b7f565b9250506020611d6f85828601611d24565b9150509250929050565b611d8281611b5e565b82525050565b61010082016000820151611d9f6000850182611d79565b506020820151611db26020850182611d79565b506040820151611dc56040850182611d79565b506060820151611dd86060850182611d79565b506080820151611deb6080850182611d79565b5060a0820151611dfe60a0850182611d79565b5060c0820151611e1160c0850182611d79565b5060e0820151611e2460e0850182611d79565b50505050565b600061010082019050611e406000830184611d88565b92915050565b6000611e5182611bf7565b9050919050565b611e6181611e46565b8114611e6c57600080fd5b50565b600081359050611e7e81611e58565b92915050565b60008060408385031215611e9b57611e9a611b59565b5b6000611ea985828601611e6f565b9250506020611eba85828601611b7f565b9150509250929050565b600060ff82169050919050565b611eda81611ec4565b82525050565b6000608082019050611ef56000830187611cac565b611f026020830186611c82565b611f0f6040830185611ed1565b611f1c6060830184611bcd565b95945050505050565b606082016000820151611f3b6000850182611d79565b506020820151611f4e6020850182611d79565b506040820151611f616040850182611d79565b50505050565b6000606082019050611f7c6000830184611f25565b92915050565b611f8b81611c17565b82525050565b611f9a81611ec4565b82525050565b611fa981611bc1565b82525050565b608082016000820151611fc56000850182611f82565b506020820151611fd86020850182611d79565b506040820151611feb6040850182611f91565b506060820151611ffe6060850182611fa0565b50505050565b60006080820190506120196000830184611faf565b92915050565b61202881611ec4565b811461203357600080fd5b50565b6000813590506120458161201f565b92915050565b60008060006060848603121561206457612063611b59565b5b600061207286828701612036565b935050602061208386828701611d24565b925050604061209486828701611b7f565b9150509250925092565b6000610100820190506120b4600083018b611c82565b6120c1602083018a611c82565b6120ce6040830189611c82565b6120db6060830188611c82565b6120e86080830187611c82565b6120f560a0830186611c82565b61210260c0830185611c82565b61210f60e0830184611c82565b9998505050505050505050565b61212581611e46565b82525050565b6000602082019050612140600083018461211c565b92915050565b600082825260208201905092915050565b7f43757272656e74207573657220646f65736e27742068617665206120706f6c6960008201527f6379000000000000000000000000000000000000000000000000000000000000602082015250565b60006121b3602283612146565b91506121be82612157565b604082019050919050565b600060208201905081810360008301526121e2816121a6565b9050919050565b600081519050919050565b60005b838110156122125780820151818401526020810190506121f7565b60008484015250505050565b6000601f19601f8301169050919050565b600061223a826121e9565b6122448185612146565b93506122548185602086016121f4565b61225d8161221e565b840191505092915050565b60006020820190508181036000830152612282818461222f565b905092915050565b60008151905061229981611c29565b92915050565b6000602082840312156122b5576122b4611b59565b5b60006122c38482850161228a565b91505092915050565b7f4d75737420626520436c61696d4170706c69636174696f6e20636f6e7472616360008201527f7400000000000000000000000000000000000000000000000000000000000000602082015250565b6000612328602183612146565b9150612333826122cc565b604082019050919050565b600060208201905081810360008301526123578161231b565b9050919050565b7f436c61696d20616d6f756e742073686f756c64206265206c657373207468616e60008201527f206f7220657175616c20746f20706f6c696379206c696d697400000000000000602082015250565b60006123ba603983612146565b91506123c58261235e565b604082019050919050565b600060208201905081810360008301526123e9816123ad565b9050919050565b7f4e487b7100000000000000000000000000000000000000000000000000000000600052601160045260246000fd5b600061242a82611b5e565b915061243583611b5e565b925082820390508181111561244d5761244c6123f0565b5b92915050565b7f4167652073686f756c642062652067726561746572207468616e203000000000600082015250565b6000612489601c83612146565b915061249482612453565b602082019050919050565b600060208201905081810360008301526124b88161247c565b9050919050565b7f596f752063616e6e6f74206170706c7920666f7220696e737572616e63650000600082015250565b60006124f5601e83612146565b9150612500826124bf565b602082019050919050565b60006020820190508181036000830152612524816124e8565b9050919050565b7f43757272656e74207573657220616c726561647920686173206120706f6c696360008201527f7900000000000000000000000000000000000000000000000000000000000000602082015250565b6000612587602183612146565b91506125928261252b565b604082019050919050565b600060208201905081810360008301526125b68161257a565b9050919050565b7f506f6c696379207465726d206d757374206265206d6f7265207468616e20302060008201527f7965617220616e64206c657373207468616e2036207965617273000000000000602082015250565b6000612619603a83612146565b9150612624826125bd565b604082019050919050565b600060208201905081810360008301526126488161260c565b9050919050565b600061265a82611b5e565b915061266583611b5e565b925082820261267381611b5e565b9150828204841483151761268a576126896123f0565b5b5092915050565b6000819050919050565b6126ac6126a782611b5e565b612691565b82525050565b60008160601b9050919050565b60006126ca826126b2565b9050919050565b60006126dc826126bf565b9050919050565b6126f46126ef82611c17565b6126d1565b82525050565b6000612706828661269b565b60208201915061271682856126e3565b601482019150612726828461269b565b602082019150819050949350505050565b600061274282611b5e565b915061274d83611b5e565b9250828201905080821115612765576127646123f0565b5b92915050565b7f4e487b7100000000000000000000000000000000000000000000000000000000600052601260045260246000fd5b60006127a582611b5e565b91506127b083611b5e565b9250826127c0576127bf61276b565b5b828204905092915050565b60006060820190506127e06000830186611cac565b6127ed6020830185611c82565b6127fa6040830184611c82565b949350505050565b7f50796d656e7420646561646c696e6520686173206265656e206d69737365642e60008201527f2054686520706f6c69637920697320696e616374697665000000000000000000602082015250565b600061285e603783612146565b915061286982612802565b604082019050919050565b6000602082019050818103600083015261288d81612851565b9050919050565b7f506f6c6963792065787069726564000000000000000000000000000000000000600082015250565b60006128ca600e83612146565b91506128d582612894565b602082019050919050565b600060208201905081810360008301526128f9816128bd565b9050919050565b7f5061796d656e7420616d6f756e74206d7573742062652067726561746572207460008201527f68616e207a65726f000000000000000000000000000000000000000000000000602082015250565b600061295c602883612146565b915061296782612900565b604082019050919050565b6000602082019050818103600083015261298b8161294f565b9050919050565b7f5061796d656e7420646561646c696e6520657175616c7320746f206f7220626960008201527f67676572207468616e20506f6c69637920656e6420646174652e000000000000602082015250565b60006129ee603a83612146565b91506129f982612992565b604082019050919050565b60006020820190508181036000830152612a1d816129e1565b9050919050565b7f496e636f7272656374207061796d656e7420616d6f756e740000000000000000600082015250565b6000612a5a601883612146565b9150612a6582612a24565b602082019050919050565b60006020820190508181036000830152612a8981612a4d565b9050919050565b600062ffffff82169050919050565b6000612aaa82612a90565b9150612ab583612a90565b9250828201905062ffffff811115612ad057612acf6123f0565b5b9291505056fea2646970667358221220955bf74724f80946d12b63d68d7f35a1020b9b99fabd89e42f72b50cd514b27e64736f6c63430008120033",
  "linkReferences": {},
  "deployedLinkReferences": {}
}