{
  "_format": "hh-sol-artifact-1",
  "contractName": "Policy",
  "sourceName": "contracts/Policy.sol",
  "abi": [
    {
      "inputs": [
        {
          "internalType": "address",
          "name": "_contractRegistryAddress",
          "type": "address"
        }
      ],
      "stateMutability": "nonpayable",
      "type": "constructor"
    },
    {
      "anonymous": false,
      "inputs": [
        {
          "indexed": false,
          "internalType": "address",
          "name": "policyHolderAddress",
          "type": "address"
        },
        {
          "indexed": false,
          "internalType": "uint256",
          "name": "policyNumber",
          "type": "uint256"
        },
        {
          "indexed": false,
          "internalType": "uint256",
          "name": "premiumAmount",
          "type": "uint256"
        }
      ],
      "name": "PolicyCreated",
      "type": "event"
    },
    {
      "anonymous": false,
      "inputs": [
        {
          "indexed": false,
          "internalType": "address",
          "name": "_policyHolder",
          "type": "address"
        },
        {
          "indexed": false,
          "internalType": "uint256",
          "name": "_policyNumber",
          "type": "uint256"
        },
        {
          "indexed": false,
          "internalType": "uint256",
          "name": "_paidPeriods",
          "type": "uint256"
        }
      ],
      "name": "PremiumPaid",
      "type": "event"
    },
    {
      "stateMutability": "payable",
      "type": "fallback"
    },
    {
      "inputs": [],
      "name": "basePolicyTerm",
      "outputs": [
        {
          "internalType": "uint256",
          "name": "",
          "type": "uint256"
        }
      ],
      "stateMutability": "view",
      "type": "function"
    },
    {
      "inputs": [
        {
          "internalType": "uint8",
          "name": "_age",
          "type": "uint8"
        },
        {
          "internalType": "bool",
          "name": "_sex",
          "type": "bool"
        },
        {
          "internalType": "uint256",
          "name": "_baseTermsNumber",
          "type": "uint256"
        }
      ],
      "name": "calculatePremium",
      "outputs": [
        {
          "internalType": "uint256",
          "name": "",
          "type": "uint256"
        }
      ],
      "stateMutability": "view",
      "type": "function"
    },
    {
      "inputs": [
        {
          "internalType": "uint256",
          "name": "_age",
          "type": "uint256"
        },
        {
          "internalType": "bool",
          "name": "_sex",
          "type": "bool"
        }
      ],
      "name": "checkEligibility",
      "outputs": [
        {
          "internalType": "bool",
          "name": "",
          "type": "bool"
        }
      ],
      "stateMutability": "pure",
      "type": "function"
    },
    {
      "inputs": [
        {
          "internalType": "uint8",
          "name": "_age",
          "type": "uint8"
        },
        {
          "internalType": "bool",
          "name": "_sex",
          "type": "bool"
        },
        {
          "internalType": "uint256",
          "name": "_baseTermsNumber",
          "type": "uint256"
        }
      ],
      "name": "createPolicy",
      "outputs": [
        {
          "internalType": "uint256",
          "name": "",
          "type": "uint256"
        }
      ],
      "stateMutability": "nonpayable",
      "type": "function"
    },
    {
      "inputs": [],
      "name": "deductiblePercentage",
      "outputs": [
        {
          "internalType": "uint256",
          "name": "",
          "type": "uint256"
        }
      ],
      "stateMutability": "view",
      "type": "function"
    },
    {
      "inputs": [],
      "name": "getBalance",
      "outputs": [
        {
          "internalType": "uint256",
          "name": "",
          "type": "uint256"
        }
      ],
      "stateMutability": "view",
      "type": "function"
    },
    {
      "inputs": [
        {
          "internalType": "address",
          "name": "_policyHolder",
          "type": "address"
        }
      ],
      "name": "getPolicyDetails",
      "outputs": [
        {
          "components": [
            {
              "internalType": "uint256",
              "name": "policyNumber",
              "type": "uint256"
            },
            {
              "internalType": "uint256",
              "name": "startDate",
              "type": "uint256"
            },
            {
              "internalType": "uint256",
              "name": "endDate",
              "type": "uint256"
            },
            {
              "internalType": "uint256",
              "name": "premiumAmount",
              "type": "uint256"
            },
            {
              "internalType": "uint256",
              "name": "policyLimit",
              "type": "uint256"
            },
            {
              "internalType": "uint256",
              "name": "deductible",
              "type": "uint256"
            },
            {
              "internalType": "uint256",
              "name": "policyTerm",
              "type": "uint256"
            },
            {
              "internalType": "uint256",
              "name": "paymentPeriod",
              "type": "uint256"
            }
          ],
          "internalType": "struct Policy.PolicyDetails",
          "name": "",
          "type": "tuple"
        }
      ],
      "stateMutability": "view",
      "type": "function"
    },
    {
      "inputs": [
        {
          "internalType": "address",
          "name": "_policyHolder",
          "type": "address"
        }
      ],
      "name": "getPolicyHolder",
      "outputs": [
        {
          "components": [
            {
              "internalType": "address",
              "name": "policyHolderAddress",
              "type": "address"
            },
            {
              "internalType": "uint256",
              "name": "policyNumber",
              "type": "uint256"
            },
            {
              "internalType": "uint8",
              "name": "age",
              "type": "uint8"
            },
            {
              "internalType": "bool",
              "name": "sex",
              "type": "bool"
            }
          ],
          "internalType": "struct Policy.PolicyHolder",
          "name": "",
          "type": "tuple"
        }
      ],
      "stateMutability": "view",
      "type": "function"
    },
    {
      "inputs": [
        {
          "internalType": "address",
          "name": "_policyHolder",
          "type": "address"
        }
      ],
      "name": "getPolicyNumber",
      "outputs": [
        {
          "internalType": "uint256",
          "name": "",
          "type": "uint256"
        }
      ],
      "stateMutability": "view",
      "type": "function"
    },
    {
      "inputs": [
        {
          "internalType": "address",
          "name": "_policyHolder",
          "type": "address"
        }
      ],
      "name": "getPolicyPayments",
      "outputs": [
        {
          "components": [
            {
              "internalType": "uint256",
              "name": "policyNumber",
              "type": "uint256"
            },
            {
              "internalType": "uint256",
              "name": "nextDeadline",
              "type": "uint256"
            },
            {
              "internalType": "uint256",
              "name": "paidPeriods",
              "type": "uint256"
            }
          ],
          "internalType": "struct Policy.PolicyPayments",
          "name": "",
          "type": "tuple"
        }
      ],
      "stateMutability": "view",
      "type": "function"
    },
    {
      "inputs": [],
      "name": "insurer",
      "outputs": [
        {
          "internalType": "address payable",
          "name": "",
          "type": "address"
        }
      ],
      "stateMutability": "view",
      "type": "function"
    },
    {
      "inputs": [
        {
          "internalType": "address",
          "name": "_policyHolder",
          "type": "address"
        }
      ],
      "name": "isPolicyDeadlineValid",
      "outputs": [
        {
          "internalType": "bool",
          "name": "",
          "type": "bool"
        }
      ],
      "stateMutability": "view",
      "type": "function"
    },
    {
      "inputs": [
        {
          "internalType": "uint256",
          "name": "_policyNumber",
          "type": "uint256"
        }
      ],
      "name": "isPolicyDeadlineValid",
      "outputs": [
        {
          "internalType": "bool",
          "name": "",
          "type": "bool"
        }
      ],
      "stateMutability": "view",
      "type": "function"
    },
    {
      "inputs": [
        {
          "internalType": "address",
          "name": "_policyHolder",
          "type": "address"
        }
      ],
      "name": "isPolicyEndTimeValid",
      "outputs": [
        {
          "internalType": "bool",
          "name": "",
          "type": "bool"
        }
      ],
      "stateMutability": "view",
      "type": "function"
    },
    {
      "inputs": [
        {
          "internalType": "uint256",
          "name": "_policyNumber",
          "type": "uint256"
        }
      ],
      "name": "isPolicyEndTimeValid",
      "outputs": [
        {
          "internalType": "bool",
          "name": "",
          "type": "bool"
        }
      ],
      "stateMutability": "view",
      "type": "function"
    },
    {
      "inputs": [
        {
          "internalType": "address",
          "name": "_policyHolder",
          "type": "address"
        }
      ],
      "name": "isPolicyHolder",
      "outputs": [
        {
          "internalType": "bool",
          "name": "",
          "type": "bool"
        }
      ],
      "stateMutability": "view",
      "type": "function"
    },
    {
      "inputs": [
        {
          "internalType": "uint256",
          "name": "_policyNumber",
          "type": "uint256"
        }
      ],
      "name": "isPolicyStarted",
      "outputs": [
        {
          "internalType": "bool",
          "name": "",
          "type": "bool"
        }
      ],
      "stateMutability": "view",
      "type": "function"
    },
    {
      "inputs": [
        {
          "internalType": "address",
          "name": "_policyHolder",
          "type": "address"
        }
      ],
      "name": "isPolicyStarted",
      "outputs": [
        {
          "internalType": "bool",
          "name": "",
          "type": "bool"
        }
      ],
      "stateMutability": "view",
      "type": "function"
    },
    {
      "inputs": [],
      "name": "makePayment",
      "outputs": [],
      "stateMutability": "payable",
      "type": "function"
    },
    {
      "inputs": [
        {
          "internalType": "address payable",
          "name": "_policyHolder",
          "type": "address"
        },
        {
          "internalType": "uint256",
          "name": "_claimAmount",
          "type": "uint256"
        }
      ],
      "name": "payClaim",
      "outputs": [],
      "stateMutability": "payable",
      "type": "function"
    },
    {
      "inputs": [
        {
          "internalType": "uint256",
          "name": "",
          "type": "uint256"
        }
      ],
      "name": "policies",
      "outputs": [
        {
          "internalType": "uint256",
          "name": "policyNumber",
          "type": "uint256"
        },
        {
          "internalType": "uint256",
          "name": "startDate",
          "type": "uint256"
        },
        {
          "internalType": "uint256",
          "name": "endDate",
          "type": "uint256"
        },
        {
          "internalType": "uint256",
          "name": "premiumAmount",
          "type": "uint256"
        },
        {
          "internalType": "uint256",
          "name": "policyLimit",
          "type": "uint256"
        },
        {
          "internalType": "uint256",
          "name": "deductible",
          "type": "uint256"
        },
        {
          "internalType": "uint256",
          "name": "policyTerm",
          "type": "uint256"
        },
        {
          "internalType": "uint256",
          "name": "paymentPeriod",
          "type": "uint256"
        }
      ],
      "stateMutability": "view",
      "type": "function"
    },
    {
      "inputs": [],
      "name": "policyCreationTime",
      "outputs": [
        {
          "internalType": "uint256",
          "name": "",
          "type": "uint256"
        }
      ],
      "stateMutability": "view",
      "type": "function"
    },
    {
      "inputs": [
        {
          "internalType": "uint256",
          "name": "",
          "type": "uint256"
        }
      ],
      "name": "policyHolderAddresses",
      "outputs": [
        {
          "internalType": "address",
          "name": "",
          "type": "address"
        }
      ],
      "stateMutability": "view",
      "type": "function"
    },
    {
      "inputs": [
        {
          "internalType": "address",
          "name": "",
          "type": "address"
        }
      ],
      "name": "policyHolders",
      "outputs": [
        {
          "internalType": "address",
          "name": "policyHolderAddress",
          "type": "address"
        },
        {
          "internalType": "uint256",
          "name": "policyNumber",
          "type": "uint256"
        },
        {
          "internalType": "uint8",
          "name": "age",
          "type": "uint8"
        },
        {
          "internalType": "bool",
          "name": "sex",
          "type": "bool"
        }
      ],
      "stateMutability": "view",
      "type": "function"
    },
    {
      "inputs": [],
      "name": "policyLimit",
      "outputs": [
        {
          "internalType": "uint256",
          "name": "",
          "type": "uint256"
        }
      ],
      "stateMutability": "view",
      "type": "function"
    },
    {
      "inputs": [],
      "name": "policyPaymentPeriod",
      "outputs": [
        {
          "internalType": "uint256",
          "name": "",
          "type": "uint256"
        }
      ],
      "stateMutability": "view",
      "type": "function"
    },
    {
      "inputs": [
        {
          "internalType": "uint256",
          "name": "",
          "type": "uint256"
        }
      ],
      "name": "policyPayments",
      "outputs": [
        {
          "internalType": "uint256",
          "name": "policyNumber",
          "type": "uint256"
        },
        {
          "internalType": "uint256",
          "name": "nextDeadline",
          "type": "uint256"
        },
        {
          "internalType": "uint256",
          "name": "paidPeriods",
          "type": "uint256"
        }
      ],
      "stateMutability": "view",
      "type": "function"
    },
    {
      "stateMutability": "payable",
      "type": "receive"
    }
  ],
  "bytecode": "0x608060405264e8d4a51000600255600a6003556301dfe2006004556224ea0060055561012c6006553480156200003457600080fd5b5060405162002cbf38038062002cbf83398181016040528101906200005a91906200014c565b806000806101000a81548173ffffffffffffffffffffffffffffffffffffffff021916908373ffffffffffffffffffffffffffffffffffffffff16021790555033600160006101000a81548173ffffffffffffffffffffffffffffffffffffffff021916908373ffffffffffffffffffffffffffffffffffffffff160217905550506200017e565b600080fd5b600073ffffffffffffffffffffffffffffffffffffffff82169050919050565b60006200011482620000e7565b9050919050565b620001268162000107565b81146200013257600080fd5b50565b60008151905062000146816200011b565b92915050565b600060208284031215620001655762000164620000e2565b5b6000620001758482850162000135565b91505092915050565b612b31806200018e6000396000f3fe6080604052600436106101a05760003560e01c80635eb7d95a116100ec578063b6bbad121161008a578063d8d7970011610064578063d8d79700146106b5578063dbc837c5146106bf578063e0463612146106ea578063eded79a214610727576101a7565b8063b6bbad12146105f7578063c37bec1514610634578063d3e8948314610671576101a7565b806378782039116100c657806378782039146105155780637fcdf27a14610552578063993c6a4b1461058f578063ad52cf89146105ba576101a7565b80635eb7d95a1461045b57806370b68a2a1461049857806376560e80146104d8576101a7565b80632a4781921161015957806345f23e291161013357806345f23e29146103ac57806350802e3f146103e9578063548c3ee8146104055780635945e48f14610430576101a7565b80632a478192146102f35780632c1f94ce146103325780632d8c1c761461036f576101a7565b80630abd63e4146101a95780630f78984b146101e657806312065fe01461022357806319ae3c6a1461024e5780631fb2b0d31461028b5780632998e07c146102c8576101a7565b366101a757005b005b3480156101b557600080fd5b506101d060048036038101906101cb9190611bb9565b610752565b6040516101dd9190611c01565b60405180910390f35b3480156101f257600080fd5b5061020d60048036038101906102089190611c7a565b6107d6565b60405161021a9190611c01565b60405180910390f35b34801561022f57600080fd5b5061023861082a565b6040516102459190611cb6565b60405180910390f35b34801561025a57600080fd5b5061027560048036038101906102709190611c7a565b610832565b6040516102829190611c01565b60405180910390f35b34801561029757600080fd5b506102b260048036038101906102ad9190611bb9565b610886565b6040516102bf9190611ce0565b60405180910390f35b3480156102d457600080fd5b506102dd6108b9565b6040516102ea9190611cb6565b60405180910390f35b3480156102ff57600080fd5b5061031a60048036038101906103159190611bb9565b6108bf565b60405161032993929190611cfb565b60405180910390f35b34801561033e57600080fd5b5061035960048036038101906103549190611bb9565b6108e9565b6040516103669190611c01565b60405180910390f35b34801561037b57600080fd5b5061039660048036038101906103919190611d5e565b61096d565b6040516103a39190611c01565b60405180910390f35b3480156103b857600080fd5b506103d360048036038101906103ce9190611c7a565b61098c565b6040516103e09190611e4f565b60405180910390f35b61040360048036038101906103fe9190611ea9565b610adf565b005b34801561041157600080fd5b5061041a610cf5565b6040516104279190611cb6565b60405180910390f35b34801561043c57600080fd5b50610445610cfb565b6040516104529190611cb6565b60405180910390f35b34801561046757600080fd5b50610482600480360381019061047d9190611c7a565b610d01565b60405161048f9190611cb6565b60405180910390f35b3480156104a457600080fd5b506104bf60048036038101906104ba9190611c7a565b610dd4565b6040516104cf9493929190611f05565b60405180910390f35b3480156104e457600080fd5b506104ff60048036038101906104fa9190611bb9565b610e3e565b60405161050c9190611c01565b60405180910390f35b34801561052157600080fd5b5061053c60048036038101906105379190611c7a565b610e8f565b6040516105499190611f8c565b60405180910390f35b34801561055e57600080fd5b5061057960048036038101906105749190611c7a565b610faf565b6040516105869190611c01565b60405180910390f35b34801561059b57600080fd5b506105a4611003565b6040516105b19190611cb6565b60405180910390f35b3480156105c657600080fd5b506105e160048036038101906105dc9190611c7a565b611009565b6040516105ee9190612029565b60405180910390f35b34801561060357600080fd5b5061061e60048036038101906106199190611c7a565b611181565b60405161062b9190611c01565b60405180910390f35b34801561064057600080fd5b5061065b60048036038101906106569190612070565b6111d0565b6040516106689190611cb6565b60405180910390f35b34801561067d57600080fd5b5061069860048036038101906106939190611bb9565b611715565b6040516106ac9897969594939291906120c3565b60405180910390f35b6106bd61175d565b005b3480156106cb57600080fd5b506106d46119f4565b6040516106e19190612150565b60405180910390f35b3480156106f657600080fd5b50610711600480360381019061070c9190612070565b611a1a565b60405161071e9190611cb6565b60405180910390f35b34801561073357600080fd5b5061073c611acf565b6040516107499190611cb6565b60405180910390f35b60008060096000848152602001908152602001600020604051806101000160405290816000820154815260200160018201548152602001600282015481526020016003820154815260200160048201548152602001600582015481526020016006820154815260200160078201548152505090504281602001511115915050919050565b6000610823600760008473ffffffffffffffffffffffffffffffffffffffff1673ffffffffffffffffffffffffffffffffffffffff168152602001908152602001600020600101546108e9565b9050919050565b600047905090565b600061087f600760008473ffffffffffffffffffffffffffffffffffffffff1673ffffffffffffffffffffffffffffffffffffffff16815260200190815260200160002060010154610e3e565b9050919050565b60086020528060005260406000206000915054906101000a900473ffffffffffffffffffffffffffffffffffffffff1681565b60025481565b600a6020528060005260406000206000915090508060000154908060010154908060020154905083565b60008060096000848152602001908152602001600020604051806101000160405290816000820154815260200160018201548152602001600282015481526020016003820154815260200160048201548152602001600582015481526020016006820154815260200160078201548152505090508060400151421115915050919050565b6000808311801561098457508180610983575081155b5b905092915050565b610994611ad5565b816000600760008373ffffffffffffffffffffffffffffffffffffffff1673ffffffffffffffffffffffffffffffffffffffff1681526020019081526020016000206001015403610a1a576040517f08c379a0000000000000000000000000000000000000000000000000000000008152600401610a11906121ee565b60405180910390fd5b6000600760008573ffffffffffffffffffffffffffffffffffffffff1673ffffffffffffffffffffffffffffffffffffffff16815260200190815260200160002060010154905060006009600083815260200190815260200160002060405180610100016040529081600082015481526020016001820154815260200160028201548152602001600382015481526020016004820154815260200160058201548152602001600682015481526020016007820154815250509050809350505050919050565b60008060009054906101000a900473ffffffffffffffffffffffffffffffffffffffff1673ffffffffffffffffffffffffffffffffffffffff1663358177736040518060400160405280601081526020017f636c61696d4170706c69636174696f6e000000000000000000000000000000008152506040518263ffffffff1660e01b8152600401610b70919061228d565b602060405180830381865afa158015610b8d573d6000803e3d6000fd5b505050506040513d601f19601f82011682018060405250810190610bb191906122c4565b90508073ffffffffffffffffffffffffffffffffffffffff163373ffffffffffffffffffffffffffffffffffffffff1614610c21576040517f08c379a0000000000000000000000000000000000000000000000000000000008152600401610c1890612363565b60405180910390fd5b6000610c2c84610d01565b905060006009600083815260200190815260200160002090508060040154841115610c8c576040517f08c379a0000000000000000000000000000000000000000000000000000000008152600401610c83906123f5565b60405180910390fd5b83816004016000828254610ca09190612444565b925050819055508473ffffffffffffffffffffffffffffffffffffffff166108fc859081150290604051600060405180830381858888f19350505050158015610ced573d6000803e3d6000fd5b505050505050565b60065481565b60045481565b6000816000600760008373ffffffffffffffffffffffffffffffffffffffff1673ffffffffffffffffffffffffffffffffffffffff1681526020019081526020016000206001015403610d89576040517f08c379a0000000000000000000000000000000000000000000000000000000008152600401610d80906121ee565b60405180910390fd5b600760008473ffffffffffffffffffffffffffffffffffffffff1673ffffffffffffffffffffffffffffffffffffffff16815260200190815260200160002060010154915050919050565b60076020528060005260406000206000915090508060000160009054906101000a900473ffffffffffffffffffffffffffffffffffffffff16908060010154908060020160009054906101000a900460ff16908060020160019054906101000a900460ff16905084565b600080600a6000848152602001908152602001600020604051806060016040529081600082015481526020016001820154815260200160028201548152505090508060200151421115915050919050565b610e97611b1a565b816000600760008373ffffffffffffffffffffffffffffffffffffffff1673ffffffffffffffffffffffffffffffffffffffff1681526020019081526020016000206001015403610f1d576040517f08c379a0000000000000000000000000000000000000000000000000000000008152600401610f14906121ee565b60405180910390fd5b6000600760008573ffffffffffffffffffffffffffffffffffffffff1673ffffffffffffffffffffffffffffffffffffffff1681526020019081526020016000206001015490506000600a600083815260200190815260200160002060405180606001604052908160008201548152602001600182015481526020016002820154815250509050809350505050919050565b6000610ffc600760008473ffffffffffffffffffffffffffffffffffffffff1673ffffffffffffffffffffffffffffffffffffffff16815260200190815260200160002060010154610752565b9050919050565b60055481565b611011611b3b565b816000600760008373ffffffffffffffffffffffffffffffffffffffff1673ffffffffffffffffffffffffffffffffffffffff1681526020019081526020016000206001015403611097576040517f08c379a000000000000000000000000000000000000000000000000000000000815260040161108e906121ee565b60405180910390fd5b600760008473ffffffffffffffffffffffffffffffffffffffff1673ffffffffffffffffffffffffffffffffffffffff1681526020019081526020016000206040518060800160405290816000820160009054906101000a900473ffffffffffffffffffffffffffffffffffffffff1673ffffffffffffffffffffffffffffffffffffffff1673ffffffffffffffffffffffffffffffffffffffff168152602001600182015481526020016002820160009054906101000a900460ff1660ff1660ff1681526020016002820160019054906101000a900460ff161515151581525050915050919050565b600080600760008473ffffffffffffffffffffffffffffffffffffffff1673ffffffffffffffffffffffffffffffffffffffff1681526020019081526020016000206001015414159050919050565b6000808460ff1611611217576040517f08c379a000000000000000000000000000000000000000000000000000000000815260040161120e906124c4565b60405180910390fd5b6112248460ff168461096d565b611263576040517f08c379a000000000000000000000000000000000000000000000000000000000815260040161125a90612530565b60405180910390fd5b6000600760003373ffffffffffffffffffffffffffffffffffffffff1673ffffffffffffffffffffffffffffffffffffffff1681526020019081526020016000206001015490506000600960008381526020019081526020016000206002015490506000600a600084815260200190815260200160002060010154905060008314806112ee57504282105b806112f857504281105b611337576040517f08c379a000000000000000000000000000000000000000000000000000000000815260040161132e906125c2565b60405180910390fd5b6000851180156113475750600685105b611386576040517f08c379a000000000000000000000000000000000000000000000000000000000815260040161137d90612654565b60405180910390fd5b6000856004546113969190612674565b905060006113a5898989611a1a565b90504233826040516020016113bc9392919061271f565b6040516020818303038152906040528051906020012060001c9450600060405180608001604052803373ffffffffffffffffffffffffffffffffffffffff1681526020018781526020018b60ff1681526020018a1515815250905080600760003373ffffffffffffffffffffffffffffffffffffffff1673ffffffffffffffffffffffffffffffffffffffff16815260200190815260200160002060008201518160000160006101000a81548173ffffffffffffffffffffffffffffffffffffffff021916908373ffffffffffffffffffffffffffffffffffffffff1602179055506020820151816001015560408201518160020160006101000a81548160ff021916908360ff16021790555060608201518160020160016101000a81548160ff021916908315150217905550905050336008600088815260200190815260200160002060006101000a81548173ffffffffffffffffffffffffffffffffffffffff021916908373ffffffffffffffffffffffffffffffffffffffff16021790555060006006544261154e919061275c565b905060006064600354856115629190612674565b61156c91906127bf565b9050848261157a919061275c565b965060006040518061010001604052808a81526020018481526020018981526020018681526020016002548152602001838152602001878152602001600554815250905080600960008b8152602001908152602001600020600082015181600001556020820151816001015560408201518160020155606082015181600301556080820151816004015560a0820151816005015560c0820151816006015560e0820151816007015590505060405180606001604052808a81526020018481526020016000815250600a60008b815260200190815260200160002060008201518160000155602082015181600101556040820151816002015590505033600860008b815260200190815260200160002060006101000a81548173ffffffffffffffffffffffffffffffffffffffff021916908373ffffffffffffffffffffffffffffffffffffffff1602179055507f93aceb1c5e55aa194781a0423a101b97efa4a051e8d2fc2ba332ca75f4e4b6a7338a876040516116fa939291906127f0565b60405180910390a18899505050505050505050509392505050565b60096020528060005260406000206000915090508060000154908060010154908060020154908060030154908060040154908060050154908060060154908060070154905088565b336000600760008373ffffffffffffffffffffffffffffffffffffffff1673ffffffffffffffffffffffffffffffffffffffff16815260200190815260200160002060010154036117e3576040517f08c379a00000000000000000000000000000000000000000000000000000000081526004016117da906121ee565b60405180910390fd5b336117ed81610832565b61182c576040517f08c379a000000000000000000000000000000000000000000000000000000000815260040161182390612899565b60405180910390fd5b611835816107d6565b611874576040517f08c379a000000000000000000000000000000000000000000000000000000000815260040161186b90612905565b60405180910390fd5b600034116118b7576040517f08c379a00000000000000000000000000000000000000000000000000000000081526004016118ae90612997565b60405180910390fd5b60006118c23361098c565b90506000600a600083600001518152602001908152602001600020905081604001518160010154111561192a576040517f08c379a000000000000000000000000000000000000000000000000000000000815260040161192190612a29565b60405180910390fd5b81606001513414611970576040517f08c379a000000000000000000000000000000000000000000000000000000000815260040161196790612a95565b60405180910390fd5b8160e00151816001016000828254611988919061275c565b9250508190555060018160020160008282546119a4919061275c565b925050819055507f395bd21029ce552d1941c174d800a5599c4b1b28887cc9b9eea83c5409da93ef33836000015183600201546040516119e6939291906127f0565b60405180910390a150505050565b600160009054906101000a900473ffffffffffffffffffffffffffffffffffffffff1681565b60008060649050600084611a2f576064611a32565b60005b60ff1662989680611a439190612ac4565b62ffffff1690506000600a90506000818385611a5f9190612674565b611a699190612674565b90506000600187611a7a9190612444565b6005611a869190612674565b6064611a929190612444565b90506000818a60ff16600254611aa89190612674565b611ab29190612674565b90508281611ac091906127bf565b96505050505050509392505050565b60035481565b60405180610100016040528060008152602001600081526020016000815260200160008152602001600081526020016000815260200160008152602001600081525090565b60405180606001604052806000815260200160008152602001600081525090565b6040518060800160405280600073ffffffffffffffffffffffffffffffffffffffff16815260200160008152602001600060ff1681526020016000151581525090565b600080fd5b6000819050919050565b611b9681611b83565b8114611ba157600080fd5b50565b600081359050611bb381611b8d565b92915050565b600060208284031215611bcf57611bce611b7e565b5b6000611bdd84828501611ba4565b91505092915050565b60008115159050919050565b611bfb81611be6565b82525050565b6000602082019050611c166000830184611bf2565b92915050565b600073ffffffffffffffffffffffffffffffffffffffff82169050919050565b6000611c4782611c1c565b9050919050565b611c5781611c3c565b8114611c6257600080fd5b50565b600081359050611c7481611c4e565b92915050565b600060208284031215611c9057611c8f611b7e565b5b6000611c9e84828501611c65565b91505092915050565b611cb081611b83565b82525050565b6000602082019050611ccb6000830184611ca7565b92915050565b611cda81611c3c565b82525050565b6000602082019050611cf56000830184611cd1565b92915050565b6000606082019050611d106000830186611ca7565b611d1d6020830185611ca7565b611d2a6040830184611ca7565b949350505050565b611d3b81611be6565b8114611d4657600080fd5b50565b600081359050611d5881611d32565b92915050565b60008060408385031215611d7557611d74611b7e565b5b6000611d8385828601611ba4565b9250506020611d9485828601611d49565b9150509250929050565b611da781611b83565b82525050565b61010082016000820151611dc46000850182611d9e565b506020820151611dd76020850182611d9e565b506040820151611dea6040850182611d9e565b506060820151611dfd6060850182611d9e565b506080820151611e106080850182611d9e565b5060a0820151611e2360a0850182611d9e565b5060c0820151611e3660c0850182611d9e565b5060e0820151611e4960e0850182611d9e565b50505050565b600061010082019050611e656000830184611dad565b92915050565b6000611e7682611c1c565b9050919050565b611e8681611e6b565b8114611e9157600080fd5b50565b600081359050611ea381611e7d565b92915050565b60008060408385031215611ec057611ebf611b7e565b5b6000611ece85828601611e94565b9250506020611edf85828601611ba4565b9150509250929050565b600060ff82169050919050565b611eff81611ee9565b82525050565b6000608082019050611f1a6000830187611cd1565b611f276020830186611ca7565b611f346040830185611ef6565b611f416060830184611bf2565b95945050505050565b606082016000820151611f606000850182611d9e565b506020820151611f736020850182611d9e565b506040820151611f866040850182611d9e565b50505050565b6000606082019050611fa16000830184611f4a565b92915050565b611fb081611c3c565b82525050565b611fbf81611ee9565b82525050565b611fce81611be6565b82525050565b608082016000820151611fea6000850182611fa7565b506020820151611ffd6020850182611d9e565b5060408201516120106040850182611fb6565b5060608201516120236060850182611fc5565b50505050565b600060808201905061203e6000830184611fd4565b92915050565b61204d81611ee9565b811461205857600080fd5b50565b60008135905061206a81612044565b92915050565b60008060006060848603121561208957612088611b7e565b5b60006120978682870161205b565b93505060206120a886828701611d49565b92505060406120b986828701611ba4565b9150509250925092565b6000610100820190506120d9600083018b611ca7565b6120e6602083018a611ca7565b6120f36040830189611ca7565b6121006060830188611ca7565b61210d6080830187611ca7565b61211a60a0830186611ca7565b61212760c0830185611ca7565b61213460e0830184611ca7565b9998505050505050505050565b61214a81611e6b565b82525050565b60006020820190506121656000830184612141565b92915050565b600082825260208201905092915050565b7f43757272656e74207573657220646f65736e27742068617665206120706f6c6960008201527f6379000000000000000000000000000000000000000000000000000000000000602082015250565b60006121d860228361216b565b91506121e38261217c565b604082019050919050565b60006020820190508181036000830152612207816121cb565b9050919050565b600081519050919050565b60005b8381101561223757808201518184015260208101905061221c565b60008484015250505050565b6000601f19601f8301169050919050565b600061225f8261220e565b612269818561216b565b9350612279818560208601612219565b61228281612243565b840191505092915050565b600060208201905081810360008301526122a78184612254565b905092915050565b6000815190506122be81611c4e565b92915050565b6000602082840312156122da576122d9611b7e565b5b60006122e8848285016122af565b91505092915050565b7f4d75737420626520436c61696d4170706c69636174696f6e20636f6e7472616360008201527f7400000000000000000000000000000000000000000000000000000000000000602082015250565b600061234d60218361216b565b9150612358826122f1565b604082019050919050565b6000602082019050818103600083015261237c81612340565b9050919050565b7f436c61696d20616d6f756e742073686f756c64206265206c657373207468616e60008201527f206f7220657175616c20746f20706f6c696379206c696d697400000000000000602082015250565b60006123df60398361216b565b91506123ea82612383565b604082019050919050565b6000602082019050818103600083015261240e816123d2565b9050919050565b7f4e487b7100000000000000000000000000000000000000000000000000000000600052601160045260246000fd5b600061244f82611b83565b915061245a83611b83565b925082820390508181111561247257612471612415565b5b92915050565b7f4167652073686f756c642062652067726561746572207468616e203000000000600082015250565b60006124ae601c8361216b565b91506124b982612478565b602082019050919050565b600060208201905081810360008301526124dd816124a1565b9050919050565b7f596f752063616e6e6f74206170706c7920666f7220696e737572616e63650000600082015250565b600061251a601e8361216b565b9150612525826124e4565b602082019050919050565b600060208201905081810360008301526125498161250d565b9050919050565b7f43757272656e74207573657220616c726561647920686173206120706f6c696360008201527f7900000000000000000000000000000000000000000000000000000000000000602082015250565b60006125ac60218361216b565b91506125b782612550565b604082019050919050565b600060208201905081810360008301526125db8161259f565b9050919050565b7f506f6c696379207465726d206d757374206265206d6f7265207468616e20302060008201527f7965617220616e64206c657373207468616e2036207965617273000000000000602082015250565b600061263e603a8361216b565b9150612649826125e2565b604082019050919050565b6000602082019050818103600083015261266d81612631565b9050919050565b600061267f82611b83565b915061268a83611b83565b925082820261269881611b83565b915082820484148315176126af576126ae612415565b5b5092915050565b6000819050919050565b6126d16126cc82611b83565b6126b6565b82525050565b60008160601b9050919050565b60006126ef826126d7565b9050919050565b6000612701826126e4565b9050919050565b61271961271482611c3c565b6126f6565b82525050565b600061272b82866126c0565b60208201915061273b8285612708565b60148201915061274b82846126c0565b602082019150819050949350505050565b600061276782611b83565b915061277283611b83565b925082820190508082111561278a57612789612415565b5b92915050565b7f4e487b7100000000000000000000000000000000000000000000000000000000600052601260045260246000fd5b60006127ca82611b83565b91506127d583611b83565b9250826127e5576127e4612790565b5b828204905092915050565b60006060820190506128056000830186611cd1565b6128126020830185611ca7565b61281f6040830184611ca7565b949350505050565b7f50796d656e7420646561646c696e6520686173206265656e206d69737365642e60008201527f2054686520706f6c69637920697320696e616374697665000000000000000000602082015250565b600061288360378361216b565b915061288e82612827565b604082019050919050565b600060208201905081810360008301526128b281612876565b9050919050565b7f506f6c6963792065787069726564000000000000000000000000000000000000600082015250565b60006128ef600e8361216b565b91506128fa826128b9565b602082019050919050565b6000602082019050818103600083015261291e816128e2565b9050919050565b7f5061796d656e7420616d6f756e74206d7573742062652067726561746572207460008201527f68616e207a65726f000000000000000000000000000000000000000000000000602082015250565b600061298160288361216b565b915061298c82612925565b604082019050919050565b600060208201905081810360008301526129b081612974565b9050919050565b7f5061796d656e7420646561646c696e6520657175616c7320746f206f7220626960008201527f67676572207468616e20506f6c69637920656e6420646174652e000000000000602082015250565b6000612a13603a8361216b565b9150612a1e826129b7565b604082019050919050565b60006020820190508181036000830152612a4281612a06565b9050919050565b7f496e636f7272656374207061796d656e7420616d6f756e740000000000000000600082015250565b6000612a7f60188361216b565b9150612a8a82612a49565b602082019050919050565b60006020820190508181036000830152612aae81612a72565b9050919050565b600062ffffff82169050919050565b6000612acf82612ab5565b9150612ada83612ab5565b9250828201905062ffffff811115612af557612af4612415565b5b9291505056fea2646970667358221220ee0befacfa596a8d50a06ae5eb951162fef92a3d75efbb7ceee5c6b784e1a38064736f6c63430008120033",
  "linkReferences": {},
  "deployedLinkReferences": {}
}